{
  "address": "0xe7f1725E7734CE288F8367e1Bb143E90bb3F0512",
  "abi": [
    {
      "inputs": [
        {
          "internalType": "address payable",
          "name": "_ogf",
          "type": "address"
        }
      ],
      "stateMutability": "payable",
      "type": "constructor"
    },
    {
      "anonymous": false,
      "inputs": [
        {
          "indexed": true,
          "internalType": "address",
          "name": "owner",
          "type": "address"
        },
        {
          "indexed": true,
          "internalType": "address",
          "name": "approved",
          "type": "address"
        },
        {
          "indexed": true,
          "internalType": "uint256",
          "name": "tokenId",
          "type": "uint256"
        }
      ],
      "name": "Approval",
      "type": "event"
    },
    {
      "anonymous": false,
      "inputs": [
        {
          "indexed": true,
          "internalType": "address",
          "name": "owner",
          "type": "address"
        },
        {
          "indexed": true,
          "internalType": "address",
          "name": "operator",
          "type": "address"
        },
        {
          "indexed": false,
          "internalType": "bool",
          "name": "approved",
          "type": "bool"
        }
      ],
      "name": "ApprovalForAll",
      "type": "event"
    },
    {
      "anonymous": false,
      "inputs": [
        {
          "indexed": true,
          "internalType": "address",
          "name": "from",
          "type": "address"
        },
        {
          "indexed": true,
          "internalType": "address",
          "name": "to",
          "type": "address"
        },
        {
          "indexed": true,
          "internalType": "uint256",
          "name": "tokenId",
          "type": "uint256"
        }
      ],
      "name": "Transfer",
      "type": "event"
    },
    {
      "inputs": [
        {
          "internalType": "address",
          "name": "to",
          "type": "address"
        },
        {
          "internalType": "uint256",
          "name": "tokenId",
          "type": "uint256"
        }
      ],
      "name": "approve",
      "outputs": [],
      "stateMutability": "nonpayable",
      "type": "function"
    },
    {
      "inputs": [],
      "name": "balance",
      "outputs": [
        {
          "internalType": "uint256",
          "name": "",
          "type": "uint256"
        }
      ],
      "stateMutability": "view",
      "type": "function"
    },
    {
      "inputs": [
        {
          "internalType": "address",
          "name": "owner",
          "type": "address"
        }
      ],
      "name": "balanceOf",
      "outputs": [
        {
          "internalType": "uint256",
          "name": "",
          "type": "uint256"
        }
      ],
      "stateMutability": "view",
      "type": "function"
    },
    {
      "inputs": [],
      "name": "deposit",
      "outputs": [],
      "stateMutability": "payable",
      "type": "function"
    },
    {
      "inputs": [
        {
          "internalType": "uint256",
          "name": "tokenId",
          "type": "uint256"
        }
      ],
      "name": "getApproved",
      "outputs": [
        {
          "internalType": "address",
          "name": "",
          "type": "address"
        }
      ],
      "stateMutability": "view",
      "type": "function"
    },
    {
      "inputs": [
        {
          "internalType": "address",
          "name": "owner",
          "type": "address"
        },
        {
          "internalType": "address",
          "name": "operator",
          "type": "address"
        }
      ],
      "name": "isApprovedForAll",
      "outputs": [
        {
          "internalType": "bool",
          "name": "",
          "type": "bool"
        }
      ],
      "stateMutability": "view",
      "type": "function"
    },
    {
      "inputs": [
        {
          "internalType": "uint256",
          "name": "start",
          "type": "uint256"
        },
        {
          "internalType": "uint256",
          "name": "end",
          "type": "uint256"
        }
      ],
      "name": "minty",
      "outputs": [],
      "stateMutability": "payable",
      "type": "function"
    },
    {
      "inputs": [],
      "name": "name",
      "outputs": [
        {
          "internalType": "string",
          "name": "",
          "type": "string"
        }
      ],
      "stateMutability": "view",
      "type": "function"
    },
    {
      "inputs": [
        {
          "internalType": "address",
          "name": "operator",
          "type": "address"
        },
        {
          "internalType": "address",
          "name": "from",
          "type": "address"
        },
        {
          "internalType": "uint256",
          "name": "tokenId",
          "type": "uint256"
        },
        {
          "internalType": "bytes",
          "name": "data",
          "type": "bytes"
        }
      ],
      "name": "onERC721Received",
      "outputs": [
        {
          "internalType": "bytes4",
          "name": "",
          "type": "bytes4"
        }
      ],
      "stateMutability": "nonpayable",
      "type": "function"
    },
    {
      "inputs": [],
      "name": "owner",
      "outputs": [
        {
          "internalType": "address payable",
          "name": "",
          "type": "address"
        }
      ],
      "stateMutability": "view",
      "type": "function"
    },
    {
      "inputs": [
        {
          "internalType": "uint256",
          "name": "tokenId",
          "type": "uint256"
        }
      ],
      "name": "ownerOf",
      "outputs": [
        {
          "internalType": "address",
          "name": "",
          "type": "address"
        }
      ],
      "stateMutability": "view",
      "type": "function"
    },
    {
      "inputs": [
        {
          "internalType": "address",
          "name": "from",
          "type": "address"
        },
        {
          "internalType": "address",
          "name": "to",
          "type": "address"
        },
        {
          "internalType": "uint256",
          "name": "tokenId",
          "type": "uint256"
        }
      ],
      "name": "safeTransferFrom",
      "outputs": [],
      "stateMutability": "nonpayable",
      "type": "function"
    },
    {
      "inputs": [
        {
          "internalType": "address",
          "name": "from",
          "type": "address"
        },
        {
          "internalType": "address",
          "name": "to",
          "type": "address"
        },
        {
          "internalType": "uint256",
          "name": "tokenId",
          "type": "uint256"
        },
        {
          "internalType": "bytes",
          "name": "_data",
          "type": "bytes"
        }
      ],
      "name": "safeTransferFrom",
      "outputs": [],
      "stateMutability": "nonpayable",
      "type": "function"
    },
    {
      "inputs": [
        {
          "internalType": "address",
          "name": "operator",
          "type": "address"
        },
        {
          "internalType": "bool",
          "name": "approved",
          "type": "bool"
        }
      ],
      "name": "setApprovalForAll",
      "outputs": [],
      "stateMutability": "nonpayable",
      "type": "function"
    },
    {
      "inputs": [
        {
          "internalType": "bytes4",
          "name": "interfaceId",
          "type": "bytes4"
        }
      ],
      "name": "supportsInterface",
      "outputs": [
        {
          "internalType": "bool",
          "name": "",
          "type": "bool"
        }
      ],
      "stateMutability": "view",
      "type": "function"
    },
    {
      "inputs": [],
      "name": "symbol",
      "outputs": [
        {
          "internalType": "string",
          "name": "",
          "type": "string"
        }
      ],
      "stateMutability": "view",
      "type": "function"
    },
    {
      "inputs": [
        {
          "internalType": "uint256",
          "name": "index",
          "type": "uint256"
        }
      ],
      "name": "tokenByIndex",
      "outputs": [
        {
          "internalType": "uint256",
          "name": "",
          "type": "uint256"
        }
      ],
      "stateMutability": "view",
      "type": "function"
    },
    {
      "inputs": [
        {
          "internalType": "address",
          "name": "owner",
          "type": "address"
        },
        {
          "internalType": "uint256",
          "name": "index",
          "type": "uint256"
        }
      ],
      "name": "tokenOfOwnerByIndex",
      "outputs": [
        {
          "internalType": "uint256",
          "name": "",
          "type": "uint256"
        }
      ],
      "stateMutability": "view",
      "type": "function"
    },
    {
      "inputs": [
        {
          "internalType": "uint256",
          "name": "tokenId",
          "type": "uint256"
        }
      ],
      "name": "tokenURI",
      "outputs": [
        {
          "internalType": "string",
          "name": "",
          "type": "string"
        }
      ],
      "stateMutability": "view",
      "type": "function"
    },
    {
      "inputs": [],
      "name": "totalSupply",
      "outputs": [
        {
          "internalType": "uint256",
          "name": "",
          "type": "uint256"
        }
      ],
      "stateMutability": "view",
      "type": "function"
    },
    {
      "inputs": [
        {
          "internalType": "address",
          "name": "from",
          "type": "address"
        },
        {
          "internalType": "address",
          "name": "to",
          "type": "address"
        },
        {
          "internalType": "uint256",
          "name": "tokenId",
          "type": "uint256"
        }
      ],
      "name": "transferFrom",
      "outputs": [],
      "stateMutability": "nonpayable",
      "type": "function"
    },
    {
      "inputs": [],
      "name": "withdraw",
      "outputs": [],
      "stateMutability": "nonpayable",
      "type": "function"
    }
  ],
  "transactionHash": "0x27814519452012d51eecbbbabffb46aff4aad96702cf6e57422c54848d053dbf",
  "args": [
    "0x5FbDB2315678afecb367f032d93F642f64180aa3"
  ],
  "solcInputHash": "fa24f22ce9b1a305c525cb8bc4d059ce",
  "bytecode": "0x60806040526040516200362a3803806200362a833981810160405281019062000029919062000219565b6040518060400160405280600681526020017f4d61646f6b6100000000000000000000000000000000000000000000000000008152506040518060400160405280600681526020017f4d41444f4b4100000000000000000000000000000000000000000000000000008152508160009080519060200190620000ad92919062000152565b508060019080519060200190620000c692919062000152565b50505080600a60006101000a81548173ffffffffffffffffffffffffffffffffffffffff021916908373ffffffffffffffffffffffffffffffffffffffff16021790555033600b60006101000a81548173ffffffffffffffffffffffffffffffffffffffff021916908373ffffffffffffffffffffffffffffffffffffffff16021790555050620002f8565b828054620001609062000279565b90600052602060002090601f016020900481019282620001845760008555620001d0565b82601f106200019f57805160ff1916838001178555620001d0565b82800160010185558215620001d0579182015b82811115620001cf578251825591602001919060010190620001b2565b5b509050620001df9190620001e3565b5090565b5b80821115620001fe576000816000905550600101620001e4565b5090565b6000815190506200021381620002de565b92915050565b6000602082840312156200022c57600080fd5b60006200023c8482850162000202565b91505092915050565b6000620002528262000259565b9050919050565b600073ffffffffffffffffffffffffffffffffffffffff82169050919050565b600060028204905060018216806200029257607f821691505b60208210811415620002a957620002a8620002af565b5b50919050565b7f4e487b7100000000000000000000000000000000000000000000000000000000600052602260045260246000fd5b620002e98162000245565b8114620002f557600080fd5b50565b61332280620003086000396000f3fe6080604052600436106101355760003560e01c80636352211e116100ab578063b69ef8a81161006f578063b69ef8a81461044c578063b88d4fde14610477578063c87b56dd146104a0578063d0e30db0146104dd578063de266fef146104e7578063e985e9c51461050357610135565b80636352211e1461035357806370a08231146103905780638da5cb5b146103cd57806395d89b41146103f8578063a22cb4651461042357610135565b806318160ddd116100fd57806318160ddd1461024557806323b872dd146102705780632f745c59146102995780633ccfd60b146102d657806342842e0e146102ed5780634f6ccce71461031657610135565b806301ffc9a71461013a57806306fdde0314610177578063081812fc146101a2578063095ea7b3146101df578063150b7a0214610208575b600080fd5b34801561014657600080fd5b50610161600480360381019061015c9190612324565b610540565b60405161016e9190612814565b60405180910390f35b34801561018357600080fd5b5061018c6105ba565b604051610199919061284a565b60405180910390f35b3480156101ae57600080fd5b506101c960048036038101906101c49190612376565b61064c565b6040516101d69190612732565b60405180910390f35b3480156101eb57600080fd5b50610206600480360381019061020191906122e8565b6106d1565b005b34801561021457600080fd5b5061022f600480360381019061022a91906121b1565b6107e9565b60405161023c919061282f565b60405180910390f35b34801561025157600080fd5b5061025a6107fe565b6040516102679190612a4c565b60405180910390f35b34801561027c57600080fd5b5061029760048036038101906102929190612162565b61080b565b005b3480156102a557600080fd5b506102c060048036038101906102bb91906122e8565b61086b565b6040516102cd9190612a4c565b60405180910390f35b3480156102e257600080fd5b506102eb610910565b005b3480156102f957600080fd5b50610314600480360381019061030f9190612162565b6109e7565b005b34801561032257600080fd5b5061033d60048036038101906103389190612376565b610a07565b60405161034a9190612a4c565b60405180910390f35b34801561035f57600080fd5b5061037a60048036038101906103759190612376565b610a9e565b6040516103879190612732565b60405180910390f35b34801561039c57600080fd5b506103b760048036038101906103b291906120fd565b610b50565b6040516103c49190612a4c565b60405180910390f35b3480156103d957600080fd5b506103e2610c08565b6040516103ef919061274d565b60405180910390f35b34801561040457600080fd5b5061040d610c2e565b60405161041a919061284a565b60405180910390f35b34801561042f57600080fd5b5061044a600480360381019061044591906122ac565b610cc0565b005b34801561045857600080fd5b50610461610e41565b60405161046e9190612a4c565b60405180910390f35b34801561048357600080fd5b5061049e60048036038101906104999190612231565b610e49565b005b3480156104ac57600080fd5b506104c760048036038101906104c29190612376565b610eab565b6040516104d4919061284a565b60405180910390f35b6104e5610f52565b005b61050160048036038101906104fc919061239f565b610f54565b005b34801561050f57600080fd5b5061052a60048036038101906105259190612126565b61101d565b6040516105379190612814565b60405180910390f35b60007f780e9d63000000000000000000000000000000000000000000000000000000007bffffffffffffffffffffffffffffffffffffffffffffffffffffffff1916827bffffffffffffffffffffffffffffffffffffffffffffffffffffffff191614806105b357506105b2826110b1565b5b9050919050565b6060600080546105c990612c8e565b80601f01602080910402602001604051908101604052809291908181526020018280546105f590612c8e565b80156106425780601f1061061757610100808354040283529160200191610642565b820191906000526020600020905b81548152906001019060200180831161062557829003601f168201915b5050505050905090565b600061065782611193565b610696576040517f08c379a000000000000000000000000000000000000000000000000000000000815260040161068d9061296c565b60405180910390fd5b6004600083815260200190815260200160002060009054906101000a900473ffffffffffffffffffffffffffffffffffffffff169050919050565b60006106dc82610a9e565b90508073ffffffffffffffffffffffffffffffffffffffff168373ffffffffffffffffffffffffffffffffffffffff16141561074d576040517f08c379a0000000000000000000000000000000000000000000000000000000008152600401610744906129ec565b60405180910390fd5b8073ffffffffffffffffffffffffffffffffffffffff1661076c6111ff565b73ffffffffffffffffffffffffffffffffffffffff16148061079b575061079a816107956111ff565b61101d565b5b6107da576040517f08c379a00000000000000000000000000000000000000000000000000000000081526004016107d19061290c565b60405180910390fd5b6107e48383611207565b505050565b600063150b7a0260e01b905095945050505050565b6000600880549050905090565b61081c6108166111ff565b826112c0565b61085b576040517f08c379a000000000000000000000000000000000000000000000000000000000815260040161085290612a0c565b60405180910390fd5b61086683838361139e565b505050565b600061087683610b50565b82106108b7576040517f08c379a00000000000000000000000000000000000000000000000000000000081526004016108ae9061286c565b60405180910390fd5b600660008473ffffffffffffffffffffffffffffffffffffffff1673ffffffffffffffffffffffffffffffffffffffff168152602001908152602001600020600083815260200190815260200160002054905092915050565b60004790506000600b60009054906101000a900473ffffffffffffffffffffffffffffffffffffffff1673ffffffffffffffffffffffffffffffffffffffff168260405161095d9061271d565b60006040518083038185875af1925050503d806000811461099a576040519150601f19603f3d011682016040523d82523d6000602084013e61099f565b606091505b50509050806109e3576040517f08c379a00000000000000000000000000000000000000000000000000000000081526004016109da906129cc565b60405180910390fd5b5050565b610a0283838360405180602001604052806000815250610e49565b505050565b6000610a116107fe565b8210610a52576040517f08c379a0000000000000000000000000000000000000000000000000000000008152600401610a4990612a2c565b60405180910390fd5b60088281548110610a8c577f4e487b7100000000000000000000000000000000000000000000000000000000600052603260045260246000fd5b90600052602060002001549050919050565b6000806002600084815260200190815260200160002060009054906101000a900473ffffffffffffffffffffffffffffffffffffffff169050600073ffffffffffffffffffffffffffffffffffffffff168173ffffffffffffffffffffffffffffffffffffffff161415610b47576040517f08c379a0000000000000000000000000000000000000000000000000000000008152600401610b3e9061294c565b60405180910390fd5b80915050919050565b60008073ffffffffffffffffffffffffffffffffffffffff168273ffffffffffffffffffffffffffffffffffffffff161415610bc1576040517f08c379a0000000000000000000000000000000000000000000000000000000008152600401610bb89061292c565b60405180910390fd5b600360008373ffffffffffffffffffffffffffffffffffffffff1673ffffffffffffffffffffffffffffffffffffffff168152602001908152602001600020549050919050565b600b60009054906101000a900473ffffffffffffffffffffffffffffffffffffffff1681565b606060018054610c3d90612c8e565b80601f0160208091040260200160405190810160405280929190818152602001828054610c6990612c8e565b8015610cb65780601f10610c8b57610100808354040283529160200191610cb6565b820191906000526020600020905b815481529060010190602001808311610c9957829003601f168201915b5050505050905090565b610cc86111ff565b73ffffffffffffffffffffffffffffffffffffffff168273ffffffffffffffffffffffffffffffffffffffff161415610d36576040517f08c379a0000000000000000000000000000000000000000000000000000000008152600401610d2d906128cc565b60405180910390fd5b8060056000610d436111ff565b73ffffffffffffffffffffffffffffffffffffffff1673ffffffffffffffffffffffffffffffffffffffff16815260200190815260200160002060008473ffffffffffffffffffffffffffffffffffffffff1673ffffffffffffffffffffffffffffffffffffffff16815260200190815260200160002060006101000a81548160ff0219169083151502179055508173ffffffffffffffffffffffffffffffffffffffff16610df06111ff565b73ffffffffffffffffffffffffffffffffffffffff167f17307eab39ab6107e8899845ad3d59bd9653f200f220920489ca2b5937696c3183604051610e359190612814565b60405180910390a35050565b600047905090565b610e5a610e546111ff565b836112c0565b610e99576040517f08c379a0000000000000000000000000000000000000000000000000000000008152600401610e9090612a0c565b60405180910390fd5b610ea5848484846115fa565b50505050565b6060610eb682611193565b610ef5576040517f08c379a0000000000000000000000000000000000000000000000000000000008152600401610eec906129ac565b60405180910390fd5b6000610eff611656565b90506000815111610f1f5760405180602001604052806000815250610f4a565b80610f298461166d565b604051602001610f3a9291906126f9565b6040516020818303038152906040525b915050919050565b565b60005b8181101561101057600a60009054906101000a900473ffffffffffffffffffffffffffffffffffffffff1673ffffffffffffffffffffffffffffffffffffffff1663594f32c866f8b0a10e4700006040518263ffffffff1660e01b81526004016000604051808303818588803b158015610fd057600080fd5b505af1158015610fe4573d6000803e3d6000fd5b5050505050610ffd8184610ff89190612b0b565b61181a565b808061100890612cf1565b915050610f57565b50611019610910565b5050565b6000600560008473ffffffffffffffffffffffffffffffffffffffff1673ffffffffffffffffffffffffffffffffffffffff16815260200190815260200160002060008373ffffffffffffffffffffffffffffffffffffffff1673ffffffffffffffffffffffffffffffffffffffff16815260200190815260200160002060009054906101000a900460ff16905092915050565b60007f80ac58cd000000000000000000000000000000000000000000000000000000007bffffffffffffffffffffffffffffffffffffffffffffffffffffffff1916827bffffffffffffffffffffffffffffffffffffffffffffffffffffffff1916148061117c57507f5b5e139f000000000000000000000000000000000000000000000000000000007bffffffffffffffffffffffffffffffffffffffffffffffffffffffff1916827bffffffffffffffffffffffffffffffffffffffffffffffffffffffff1916145b8061118c575061118b8261193d565b5b9050919050565b60008073ffffffffffffffffffffffffffffffffffffffff166002600084815260200190815260200160002060009054906101000a900473ffffffffffffffffffffffffffffffffffffffff1673ffffffffffffffffffffffffffffffffffffffff1614159050919050565b600033905090565b816004600083815260200190815260200160002060006101000a81548173ffffffffffffffffffffffffffffffffffffffff021916908373ffffffffffffffffffffffffffffffffffffffff160217905550808273ffffffffffffffffffffffffffffffffffffffff1661127a83610a9e565b73ffffffffffffffffffffffffffffffffffffffff167f8c5be1e5ebec7d5bd14f71427d1e84f3dd0314c0f7b2291e5b200ac8c7c3b92560405160405180910390a45050565b60006112cb82611193565b61130a576040517f08c379a0000000000000000000000000000000000000000000000000000000008152600401611301906128ec565b60405180910390fd5b600061131583610a9e565b90508073ffffffffffffffffffffffffffffffffffffffff168473ffffffffffffffffffffffffffffffffffffffff16148061138457508373ffffffffffffffffffffffffffffffffffffffff1661136c8461064c565b73ffffffffffffffffffffffffffffffffffffffff16145b806113955750611394818561101d565b5b91505092915050565b8273ffffffffffffffffffffffffffffffffffffffff166113be82610a9e565b73ffffffffffffffffffffffffffffffffffffffff1614611414576040517f08c379a000000000000000000000000000000000000000000000000000000000815260040161140b9061298c565b60405180910390fd5b600073ffffffffffffffffffffffffffffffffffffffff168273ffffffffffffffffffffffffffffffffffffffff161415611484576040517f08c379a000000000000000000000000000000000000000000000000000000000815260040161147b906128ac565b60405180910390fd5b61148f8383836119a7565b61149a600082611207565b6001600360008573ffffffffffffffffffffffffffffffffffffffff1673ffffffffffffffffffffffffffffffffffffffff16815260200190815260200160002060008282546114ea9190612b92565b925050819055506001600360008473ffffffffffffffffffffffffffffffffffffffff1673ffffffffffffffffffffffffffffffffffffffff16815260200190815260200160002060008282546115419190612b0b565b92505081905550816002600083815260200190815260200160002060006101000a81548173ffffffffffffffffffffffffffffffffffffffff021916908373ffffffffffffffffffffffffffffffffffffffff160217905550808273ffffffffffffffffffffffffffffffffffffffff168473ffffffffffffffffffffffffffffffffffffffff167fddf252ad1be2c89b69c2b068fc378daa952ba7f163c4a11628f55a4df523b3ef60405160405180910390a4505050565b61160584848461139e565b61161184848484611abb565b611650576040517f08c379a00000000000000000000000000000000000000000000000000000000081526004016116479061288c565b60405180910390fd5b50505050565b606060405180602001604052806000815250905090565b606060008214156116b5576040518060400160405280600181526020017f30000000000000000000000000000000000000000000000000000000000000008152509050611815565b600082905060005b600082146116e75780806116d090612cf1565b915050600a826116e09190612b61565b91506116bd565b60008167ffffffffffffffff811115611729577f4e487b7100000000000000000000000000000000000000000000000000000000600052604160045260246000fd5b6040519080825280601f01601f19166020018201604052801561175b5781602001600182028036833780820191505090505b5090505b6000851461180e576001826117749190612b92565b9150600a856117839190612d3a565b603061178f9190612b0b565b60f81b8183815181106117cb577f4e487b7100000000000000000000000000000000000000000000000000000000600052603260045260246000fd5b60200101907effffffffffffffffffffffffffffffffffffffffffffffffffffffffffffff1916908160001a905350600a856118079190612b61565b945061175f565b8093505050505b919050565b600a60009054906101000a900473ffffffffffffffffffffffffffffffffffffffff1673ffffffffffffffffffffffffffffffffffffffff1663095ea7b333836040518363ffffffff1660e01b81526004016118779291906127eb565b600060405180830381600087803b15801561189157600080fd5b505af11580156118a5573d6000803e3d6000fd5b50505050600a60009054906101000a900473ffffffffffffffffffffffffffffffffffffffff1673ffffffffffffffffffffffffffffffffffffffff166323b872dd3033846040518463ffffffff1660e01b815260040161190893929190612768565b600060405180830381600087803b15801561192257600080fd5b505af1158015611936573d6000803e3d6000fd5b5050505050565b60007f01ffc9a7000000000000000000000000000000000000000000000000000000007bffffffffffffffffffffffffffffffffffffffffffffffffffffffff1916827bffffffffffffffffffffffffffffffffffffffffffffffffffffffff1916149050919050565b6119b2838383611c52565b600073ffffffffffffffffffffffffffffffffffffffff168373ffffffffffffffffffffffffffffffffffffffff1614156119f5576119f081611c57565b611a34565b8173ffffffffffffffffffffffffffffffffffffffff168373ffffffffffffffffffffffffffffffffffffffff1614611a3357611a328382611ca0565b5b5b600073ffffffffffffffffffffffffffffffffffffffff168273ffffffffffffffffffffffffffffffffffffffff161415611a7757611a7281611e0d565b611ab6565b8273ffffffffffffffffffffffffffffffffffffffff168273ffffffffffffffffffffffffffffffffffffffff1614611ab557611ab48282611f50565b5b5b505050565b6000611adc8473ffffffffffffffffffffffffffffffffffffffff16611fcf565b15611c45578373ffffffffffffffffffffffffffffffffffffffff1663150b7a02611b056111ff565b8786866040518563ffffffff1660e01b8152600401611b27949392919061279f565b602060405180830381600087803b158015611b4157600080fd5b505af1925050508015611b7257506040513d601f19601f82011682018060405250810190611b6f919061234d565b60015b611bf5573d8060008114611ba2576040519150601f19603f3d011682016040523d82523d6000602084013e611ba7565b606091505b50600081511415611bed576040517f08c379a0000000000000000000000000000000000000000000000000000000008152600401611be49061288c565b60405180910390fd5b805181602001fd5b63150b7a0260e01b7bffffffffffffffffffffffffffffffffffffffffffffffffffffffff1916817bffffffffffffffffffffffffffffffffffffffffffffffffffffffff191614915050611c4a565b600190505b949350505050565b505050565b6008805490506009600083815260200190815260200160002081905550600881908060018154018082558091505060019003906000526020600020016000909190919091505550565b60006001611cad84610b50565b611cb79190612b92565b9050600060076000848152602001908152602001600020549050818114611d9c576000600660008673ffffffffffffffffffffffffffffffffffffffff1673ffffffffffffffffffffffffffffffffffffffff168152602001908152602001600020600084815260200190815260200160002054905080600660008773ffffffffffffffffffffffffffffffffffffffff1673ffffffffffffffffffffffffffffffffffffffff168152602001908152602001600020600084815260200190815260200160002081905550816007600083815260200190815260200160002081905550505b6007600084815260200190815260200160002060009055600660008573ffffffffffffffffffffffffffffffffffffffff1673ffffffffffffffffffffffffffffffffffffffff16815260200190815260200160002060008381526020019081526020016000206000905550505050565b60006001600880549050611e219190612b92565b9050600060096000848152602001908152602001600020549050600060088381548110611e77577f4e487b7100000000000000000000000000000000000000000000000000000000600052603260045260246000fd5b906000526020600020015490508060088381548110611ebf577f4e487b7100000000000000000000000000000000000000000000000000000000600052603260045260246000fd5b906000526020600020018190555081600960008381526020019081526020016000208190555060096000858152602001908152602001600020600090556008805480611f34577f4e487b7100000000000000000000000000000000000000000000000000000000600052603160045260246000fd5b6001900381819060005260206000200160009055905550505050565b6000611f5b83610b50565b905081600660008573ffffffffffffffffffffffffffffffffffffffff1673ffffffffffffffffffffffffffffffffffffffff168152602001908152602001600020600083815260200190815260200160002081905550806007600084815260200190815260200160002081905550505050565b600080823b905060008111915050919050565b6000611ff5611ff084612a8c565b612a67565b90508281526020810184848401111561200d57600080fd5b612018848285612c4c565b509392505050565b60008135905061202f81613290565b92915050565b600081359050612044816132a7565b92915050565b600081359050612059816132be565b92915050565b60008151905061206e816132be565b92915050565b60008083601f84011261208657600080fd5b8235905067ffffffffffffffff81111561209f57600080fd5b6020830191508360018202830111156120b757600080fd5b9250929050565b600082601f8301126120cf57600080fd5b81356120df848260208601611fe2565b91505092915050565b6000813590506120f7816132d5565b92915050565b60006020828403121561210f57600080fd5b600061211d84828501612020565b91505092915050565b6000806040838503121561213957600080fd5b600061214785828601612020565b925050602061215885828601612020565b9150509250929050565b60008060006060848603121561217757600080fd5b600061218586828701612020565b935050602061219686828701612020565b92505060406121a7868287016120e8565b9150509250925092565b6000806000806000608086880312156121c957600080fd5b60006121d788828901612020565b95505060206121e888828901612020565b94505060406121f9888289016120e8565b935050606086013567ffffffffffffffff81111561221657600080fd5b61222288828901612074565b92509250509295509295909350565b6000806000806080858703121561224757600080fd5b600061225587828801612020565b945050602061226687828801612020565b9350506040612277878288016120e8565b925050606085013567ffffffffffffffff81111561229457600080fd5b6122a0878288016120be565b91505092959194509250565b600080604083850312156122bf57600080fd5b60006122cd85828601612020565b92505060206122de85828601612035565b9150509250929050565b600080604083850312156122fb57600080fd5b600061230985828601612020565b925050602061231a858286016120e8565b9150509250929050565b60006020828403121561233657600080fd5b60006123448482850161204a565b91505092915050565b60006020828403121561235f57600080fd5b600061236d8482850161205f565b91505092915050565b60006020828403121561238857600080fd5b6000612396848285016120e8565b91505092915050565b600080604083850312156123b257600080fd5b60006123c0858286016120e8565b92505060206123d1858286016120e8565b9150509250929050565b6123e481612bd8565b82525050565b6123f381612bc6565b82525050565b61240281612bea565b82525050565b61241181612bf6565b82525050565b600061242282612abd565b61242c8185612ad3565b935061243c818560208601612c5b565b61244581612e27565b840191505092915050565b600061245b82612ac8565b6124658185612aef565b9350612475818560208601612c5b565b61247e81612e27565b840191505092915050565b600061249482612ac8565b61249e8185612b00565b93506124ae818560208601612c5b565b80840191505092915050565b60006124c7602b83612aef565b91506124d282612e38565b604082019050919050565b60006124ea603283612aef565b91506124f582612e87565b604082019050919050565b600061250d602483612aef565b915061251882612ed6565b604082019050919050565b6000612530601983612aef565b915061253b82612f25565b602082019050919050565b6000612553602c83612aef565b915061255e82612f4e565b604082019050919050565b6000612576603883612aef565b915061258182612f9d565b604082019050919050565b6000612599602a83612aef565b91506125a482612fec565b604082019050919050565b60006125bc602983612aef565b91506125c78261303b565b604082019050919050565b60006125df602c83612aef565b91506125ea8261308a565b604082019050919050565b6000612602602983612aef565b915061260d826130d9565b604082019050919050565b6000612625602f83612aef565b915061263082613128565b604082019050919050565b6000612648601883612aef565b915061265382613177565b602082019050919050565b600061266b602183612aef565b9150612676826131a0565b604082019050919050565b600061268e600083612ae4565b9150612699826131ef565b600082019050919050565b60006126b1603183612aef565b91506126bc826131f2565b604082019050919050565b60006126d4602c83612aef565b91506126df82613241565b604082019050919050565b6126f381612c42565b82525050565b60006127058285612489565b91506127118284612489565b91508190509392505050565b600061272882612681565b9150819050919050565b600060208201905061274760008301846123ea565b92915050565b600060208201905061276260008301846123db565b92915050565b600060608201905061277d60008301866123ea565b61278a60208301856123ea565b61279760408301846126ea565b949350505050565b60006080820190506127b460008301876123ea565b6127c160208301866123ea565b6127ce60408301856126ea565b81810360608301526127e08184612417565b905095945050505050565b600060408201905061280060008301856123ea565b61280d60208301846126ea565b9392505050565b600060208201905061282960008301846123f9565b92915050565b60006020820190506128446000830184612408565b92915050565b600060208201905081810360008301526128648184612450565b905092915050565b60006020820190508181036000830152612885816124ba565b9050919050565b600060208201905081810360008301526128a5816124dd565b9050919050565b600060208201905081810360008301526128c581612500565b9050919050565b600060208201905081810360008301526128e581612523565b9050919050565b6000602082019050818103600083015261290581612546565b9050919050565b6000602082019050818103600083015261292581612569565b9050919050565b600060208201905081810360008301526129458161258c565b9050919050565b60006020820190508181036000830152612965816125af565b9050919050565b60006020820190508181036000830152612985816125d2565b9050919050565b600060208201905081810360008301526129a5816125f5565b9050919050565b600060208201905081810360008301526129c581612618565b9050919050565b600060208201905081810360008301526129e58161263b565b9050919050565b60006020820190508181036000830152612a058161265e565b9050919050565b60006020820190508181036000830152612a25816126a4565b9050919050565b60006020820190508181036000830152612a45816126c7565b9050919050565b6000602082019050612a6160008301846126ea565b92915050565b6000612a71612a82565b9050612a7d8282612cc0565b919050565b6000604051905090565b600067ffffffffffffffff821115612aa757612aa6612df8565b5b612ab082612e27565b9050602081019050919050565b600081519050919050565b600081519050919050565b600082825260208201905092915050565b600081905092915050565b600082825260208201905092915050565b600081905092915050565b6000612b1682612c42565b9150612b2183612c42565b9250827fffffffffffffffffffffffffffffffffffffffffffffffffffffffffffffffff03821115612b5657612b55612d6b565b5b828201905092915050565b6000612b6c82612c42565b9150612b7783612c42565b925082612b8757612b86612d9a565b5b828204905092915050565b6000612b9d82612c42565b9150612ba883612c42565b925082821015612bbb57612bba612d6b565b5b828203905092915050565b6000612bd182612c22565b9050919050565b6000612be382612c22565b9050919050565b60008115159050919050565b60007fffffffff0000000000000000000000000000000000000000000000000000000082169050919050565b600073ffffffffffffffffffffffffffffffffffffffff82169050919050565b6000819050919050565b82818337600083830152505050565b60005b83811015612c79578082015181840152602081019050612c5e565b83811115612c88576000848401525b50505050565b60006002820490506001821680612ca657607f821691505b60208210811415612cba57612cb9612dc9565b5b50919050565b612cc982612e27565b810181811067ffffffffffffffff82111715612ce857612ce7612df8565b5b80604052505050565b6000612cfc82612c42565b91507fffffffffffffffffffffffffffffffffffffffffffffffffffffffffffffffff821415612d2f57612d2e612d6b565b5b600182019050919050565b6000612d4582612c42565b9150612d5083612c42565b925082612d6057612d5f612d9a565b5b828206905092915050565b7f4e487b7100000000000000000000000000000000000000000000000000000000600052601160045260246000fd5b7f4e487b7100000000000000000000000000000000000000000000000000000000600052601260045260246000fd5b7f4e487b7100000000000000000000000000000000000000000000000000000000600052602260045260246000fd5b7f4e487b7100000000000000000000000000000000000000000000000000000000600052604160045260246000fd5b6000601f19601f8301169050919050565b7f455243373231456e756d657261626c653a206f776e657220696e646578206f7560008201527f74206f6620626f756e6473000000000000000000000000000000000000000000602082015250565b7f4552433732313a207472616e7366657220746f206e6f6e20455243373231526560008201527f63656976657220696d706c656d656e7465720000000000000000000000000000602082015250565b7f4552433732313a207472616e7366657220746f20746865207a65726f2061646460008201527f7265737300000000000000000000000000000000000000000000000000000000602082015250565b7f4552433732313a20617070726f766520746f2063616c6c657200000000000000600082015250565b7f4552433732313a206f70657261746f7220717565727920666f72206e6f6e657860008201527f697374656e7420746f6b656e0000000000000000000000000000000000000000602082015250565b7f4552433732313a20617070726f76652063616c6c6572206973206e6f74206f7760008201527f6e6572206e6f7220617070726f76656420666f7220616c6c0000000000000000602082015250565b7f4552433732313a2062616c616e636520717565727920666f7220746865207a6560008201527f726f206164647265737300000000000000000000000000000000000000000000602082015250565b7f4552433732313a206f776e657220717565727920666f72206e6f6e657869737460008201527f656e7420746f6b656e0000000000000000000000000000000000000000000000602082015250565b7f4552433732313a20617070726f76656420717565727920666f72206e6f6e657860008201527f697374656e7420746f6b656e0000000000000000000000000000000000000000602082015250565b7f4552433732313a207472616e73666572206f6620746f6b656e2074686174206960008201527f73206e6f74206f776e0000000000000000000000000000000000000000000000602082015250565b7f4552433732314d657461646174613a2055524920717565727920666f72206e6f60008201527f6e6578697374656e7420746f6b656e0000000000000000000000000000000000602082015250565b7f4661696c656420746f2077697468647261772045746865720000000000000000600082015250565b7f4552433732313a20617070726f76616c20746f2063757272656e74206f776e6560008201527f7200000000000000000000000000000000000000000000000000000000000000602082015250565b50565b7f4552433732313a207472616e736665722063616c6c6572206973206e6f74206f60008201527f776e6572206e6f7220617070726f766564000000000000000000000000000000602082015250565b7f455243373231456e756d657261626c653a20676c6f62616c20696e646578206f60008201527f7574206f6620626f756e64730000000000000000000000000000000000000000602082015250565b61329981612bc6565b81146132a457600080fd5b50565b6132b081612bea565b81146132bb57600080fd5b50565b6132c781612bf6565b81146132d257600080fd5b50565b6132de81612c42565b81146132e957600080fd5b5056fea26469706673582212200d74271fd86a8c6137b8b3cdefe895c7a75d61fceb17fd03b16efb6e1492346164736f6c63430008040033",
  "devdoc": {
    "kind": "dev",
    "methods": {
      "approve(address,uint256)": {
        "details": "See {IERC721-approve}."
      },
      "balanceOf(address)": {
        "details": "See {IERC721-balanceOf}."
      },
      "getApproved(uint256)": {
        "details": "See {IERC721-getApproved}."
      },
      "isApprovedForAll(address,address)": {
        "details": "See {IERC721-isApprovedForAll}."
      },
      "name()": {
        "details": "See {IERC721Metadata-name}."
      },
      "ownerOf(uint256)": {
        "details": "See {IERC721-ownerOf}."
      },
      "safeTransferFrom(address,address,uint256)": {
        "details": "See {IERC721-safeTransferFrom}."
      },
      "safeTransferFrom(address,address,uint256,bytes)": {
        "details": "See {IERC721-safeTransferFrom}."
      },
      "setApprovalForAll(address,bool)": {
        "details": "See {IERC721-setApprovalForAll}."
      },
      "supportsInterface(bytes4)": {
        "details": "See {IERC165-supportsInterface}."
      },
      "symbol()": {
        "details": "See {IERC721Metadata-symbol}."
      },
      "tokenByIndex(uint256)": {
        "details": "See {IERC721Enumerable-tokenByIndex}."
      },
      "tokenOfOwnerByIndex(address,uint256)": {
        "details": "See {IERC721Enumerable-tokenOfOwnerByIndex}."
      },
      "tokenURI(uint256)": {
        "details": "See {IERC721Metadata-tokenURI}."
      },
      "totalSupply()": {
        "details": "See {IERC721Enumerable-totalSupply}."
      },
      "transferFrom(address,address,uint256)": {
        "details": "See {IERC721-transferFrom}."
      }
    },
    "version": 1
  },
  "userdoc": {
    "kind": "user",
    "methods": {},
    "version": 1
  },
  "storageLayout": {
    "storage": [
      {
        "astId": 169,
        "contract": "contracts/MultiMint.sol:MultiMint",
        "label": "_name",
        "offset": 0,
        "slot": "0",
        "type": "t_string_storage"
      },
      {
        "astId": 171,
        "contract": "contracts/MultiMint.sol:MultiMint",
        "label": "_symbol",
        "offset": 0,
        "slot": "1",
        "type": "t_string_storage"
      },
      {
        "astId": 175,
        "contract": "contracts/MultiMint.sol:MultiMint",
        "label": "_owners",
        "offset": 0,
        "slot": "2",
        "type": "t_mapping(t_uint256,t_address)"
      },
      {
        "astId": 179,
        "contract": "contracts/MultiMint.sol:MultiMint",
        "label": "_balances",
        "offset": 0,
        "slot": "3",
        "type": "t_mapping(t_address,t_uint256)"
      },
      {
        "astId": 183,
        "contract": "contracts/MultiMint.sol:MultiMint",
        "label": "_tokenApprovals",
        "offset": 0,
        "slot": "4",
        "type": "t_mapping(t_uint256,t_address)"
      },
      {
        "astId": 189,
        "contract": "contracts/MultiMint.sol:MultiMint",
        "label": "_operatorApprovals",
        "offset": 0,
        "slot": "5",
        "type": "t_mapping(t_address,t_mapping(t_address,t_bool))"
      },
      {
        "astId": 1108,
        "contract": "contracts/MultiMint.sol:MultiMint",
        "label": "_ownedTokens",
        "offset": 0,
        "slot": "6",
        "type": "t_mapping(t_address,t_mapping(t_uint256,t_uint256))"
      },
      {
        "astId": 1112,
        "contract": "contracts/MultiMint.sol:MultiMint",
        "label": "_ownedTokensIndex",
        "offset": 0,
        "slot": "7",
        "type": "t_mapping(t_uint256,t_uint256)"
      },
      {
        "astId": 1115,
        "contract": "contracts/MultiMint.sol:MultiMint",
        "label": "_allTokens",
        "offset": 0,
        "slot": "8",
        "type": "t_array(t_uint256)dyn_storage"
      },
      {
        "astId": 1119,
        "contract": "contracts/MultiMint.sol:MultiMint",
        "label": "_allTokensIndex",
        "offset": 0,
        "slot": "9",
        "type": "t_mapping(t_uint256,t_uint256)"
      },
      {
        "astId": 2056,
        "contract": "contracts/MultiMint.sol:MultiMint",
        "label": "ourGirlfriend",
        "offset": 0,
        "slot": "10",
        "type": "t_contract(OurGirlfriend)2760"
      },
      {
        "astId": 2058,
        "contract": "contracts/MultiMint.sol:MultiMint",
        "label": "owner",
        "offset": 0,
        "slot": "11",
        "type": "t_address_payable"
      }
    ],
    "types": {
      "t_address": {
        "encoding": "inplace",
        "label": "address",
        "numberOfBytes": "20"
      },
      "t_address_payable": {
        "encoding": "inplace",
        "label": "address payable",
        "numberOfBytes": "20"
      },
      "t_array(t_uint256)dyn_storage": {
        "base": "t_uint256",
        "encoding": "dynamic_array",
        "label": "uint256[]",
        "numberOfBytes": "32"
      },
      "t_bool": {
        "encoding": "inplace",
        "label": "bool",
        "numberOfBytes": "1"
      },
      "t_contract(OurGirlfriend)2760": {
        "encoding": "inplace",
        "label": "contract OurGirlfriend",
        "numberOfBytes": "20"
      },
      "t_mapping(t_address,t_bool)": {
        "encoding": "mapping",
        "key": "t_address",
        "label": "mapping(address => bool)",
        "numberOfBytes": "32",
        "value": "t_bool"
      },
      "t_mapping(t_address,t_mapping(t_address,t_bool))": {
        "encoding": "mapping",
        "key": "t_address",
        "label": "mapping(address => mapping(address => bool))",
        "numberOfBytes": "32",
        "value": "t_mapping(t_address,t_bool)"
      },
      "t_mapping(t_address,t_mapping(t_uint256,t_uint256))": {
        "encoding": "mapping",
        "key": "t_address",
        "label": "mapping(address => mapping(uint256 => uint256))",
        "numberOfBytes": "32",
        "value": "t_mapping(t_uint256,t_uint256)"
      },
      "t_mapping(t_address,t_uint256)": {
        "encoding": "mapping",
        "key": "t_address",
        "label": "mapping(address => uint256)",
        "numberOfBytes": "32",
        "value": "t_uint256"
      },
      "t_mapping(t_uint256,t_address)": {
        "encoding": "mapping",
        "key": "t_uint256",
        "label": "mapping(uint256 => address)",
        "numberOfBytes": "32",
        "value": "t_address"
      },
      "t_mapping(t_uint256,t_uint256)": {
        "encoding": "mapping",
        "key": "t_uint256",
        "label": "mapping(uint256 => uint256)",
        "numberOfBytes": "32",
        "value": "t_uint256"
      },
      "t_string_storage": {
        "encoding": "bytes",
        "label": "string",
        "numberOfBytes": "32"
      },
      "t_uint256": {
        "encoding": "inplace",
        "label": "uint256",
        "numberOfBytes": "32"
      }
    }
  }
}