{
  "address": "0x5FbDB2315678afecb367f032d93F642f64180aa3",
  "abi": [
    {
      "inputs": [],
      "stateMutability": "nonpayable",
      "type": "constructor"
    },
    {
      "anonymous": false,
      "inputs": [
        {
          "indexed": true,
          "internalType": "address",
          "name": "owner",
          "type": "address"
        },
        {
          "indexed": true,
          "internalType": "address",
          "name": "approved",
          "type": "address"
        },
        {
          "indexed": true,
          "internalType": "uint256",
          "name": "tokenId",
          "type": "uint256"
        }
      ],
      "name": "Approval",
      "type": "event"
    },
    {
      "anonymous": false,
      "inputs": [
        {
          "indexed": true,
          "internalType": "address",
          "name": "owner",
          "type": "address"
        },
        {
          "indexed": true,
          "internalType": "address",
          "name": "operator",
          "type": "address"
        },
        {
          "indexed": false,
          "internalType": "bool",
          "name": "approved",
          "type": "bool"
        }
      ],
      "name": "ApprovalForAll",
      "type": "event"
    },
    {
      "anonymous": false,
      "inputs": [
        {
          "indexed": true,
          "internalType": "address",
          "name": "previousOwner",
          "type": "address"
        },
        {
          "indexed": true,
          "internalType": "address",
          "name": "newOwner",
          "type": "address"
        }
      ],
      "name": "OwnershipTransferred",
      "type": "event"
    },
    {
      "anonymous": false,
      "inputs": [
        {
          "indexed": true,
          "internalType": "address",
          "name": "from",
          "type": "address"
        },
        {
          "indexed": true,
          "internalType": "address",
          "name": "to",
          "type": "address"
        },
        {
          "indexed": true,
          "internalType": "uint256",
          "name": "tokenId",
          "type": "uint256"
        }
      ],
      "name": "Transfer",
      "type": "event"
    },
    {
      "anonymous": false,
      "inputs": [
        {
          "indexed": false,
          "internalType": "address",
          "name": "_wooer",
          "type": "address"
        },
        {
          "indexed": false,
          "internalType": "uint256",
          "name": "tokenId",
          "type": "uint256"
        },
        {
          "indexed": false,
          "internalType": "uint256",
          "name": "_newScore",
          "type": "uint256"
        }
      ],
      "name": "Wooed",
      "type": "event"
    },
    {
      "inputs": [],
      "name": "MAX_SUPPLY",
      "outputs": [
        {
          "internalType": "uint256",
          "name": "",
          "type": "uint256"
        }
      ],
      "stateMutability": "view",
      "type": "function"
    },
    {
      "inputs": [],
      "name": "PRICE",
      "outputs": [
        {
          "internalType": "uint256",
          "name": "",
          "type": "uint256"
        }
      ],
      "stateMutability": "view",
      "type": "function"
    },
    {
      "inputs": [
        {
          "internalType": "address",
          "name": "to",
          "type": "address"
        },
        {
          "internalType": "uint256",
          "name": "tokenId",
          "type": "uint256"
        }
      ],
      "name": "approve",
      "outputs": [],
      "stateMutability": "nonpayable",
      "type": "function"
    },
    {
      "inputs": [
        {
          "internalType": "address",
          "name": "owner",
          "type": "address"
        }
      ],
      "name": "balanceOf",
      "outputs": [
        {
          "internalType": "uint256",
          "name": "",
          "type": "uint256"
        }
      ],
      "stateMutability": "view",
      "type": "function"
    },
    {
      "inputs": [],
      "name": "creatorWithdraw",
      "outputs": [],
      "stateMutability": "nonpayable",
      "type": "function"
    },
    {
      "inputs": [
        {
          "internalType": "uint256",
          "name": "tokenId",
          "type": "uint256"
        }
      ],
      "name": "getApproved",
      "outputs": [
        {
          "internalType": "address",
          "name": "",
          "type": "address"
        }
      ],
      "stateMutability": "view",
      "type": "function"
    },
    {
      "inputs": [],
      "name": "howIsSheFeeling",
      "outputs": [
        {
          "internalType": "string",
          "name": "",
          "type": "string"
        }
      ],
      "stateMutability": "view",
      "type": "function"
    },
    {
      "inputs": [
        {
          "internalType": "address",
          "name": "owner",
          "type": "address"
        },
        {
          "internalType": "address",
          "name": "operator",
          "type": "address"
        }
      ],
      "name": "isApprovedForAll",
      "outputs": [
        {
          "internalType": "bool",
          "name": "",
          "type": "bool"
        }
      ],
      "stateMutability": "view",
      "type": "function"
    },
    {
      "inputs": [],
      "name": "lastWooed",
      "outputs": [
        {
          "internalType": "uint256",
          "name": "",
          "type": "uint256"
        }
      ],
      "stateMutability": "view",
      "type": "function"
    },
    {
      "inputs": [],
      "name": "mintRevenue",
      "outputs": [
        {
          "internalType": "uint256",
          "name": "",
          "type": "uint256"
        }
      ],
      "stateMutability": "view",
      "type": "function"
    },
    {
      "inputs": [],
      "name": "name",
      "outputs": [
        {
          "internalType": "string",
          "name": "",
          "type": "string"
        }
      ],
      "stateMutability": "view",
      "type": "function"
    },
    {
      "inputs": [],
      "name": "owner",
      "outputs": [
        {
          "internalType": "address",
          "name": "",
          "type": "address"
        }
      ],
      "stateMutability": "view",
      "type": "function"
    },
    {
      "inputs": [
        {
          "internalType": "uint256",
          "name": "tokenId",
          "type": "uint256"
        }
      ],
      "name": "ownerOf",
      "outputs": [
        {
          "internalType": "address",
          "name": "",
          "type": "address"
        }
      ],
      "stateMutability": "view",
      "type": "function"
    },
    {
      "inputs": [
        {
          "internalType": "uint256",
          "name": "",
          "type": "uint256"
        }
      ],
      "name": "relationshipScores",
      "outputs": [
        {
          "internalType": "uint256",
          "name": "",
          "type": "uint256"
        }
      ],
      "stateMutability": "view",
      "type": "function"
    },
    {
      "inputs": [
        {
          "internalType": "uint256",
          "name": "tokenId",
          "type": "uint256"
        }
      ],
      "name": "relationshipStatus",
      "outputs": [
        {
          "internalType": "string",
          "name": "",
          "type": "string"
        }
      ],
      "stateMutability": "view",
      "type": "function"
    },
    {
      "inputs": [],
      "name": "renounceOwnership",
      "outputs": [],
      "stateMutability": "nonpayable",
      "type": "function"
    },
    {
      "inputs": [
        {
          "internalType": "address",
          "name": "from",
          "type": "address"
        },
        {
          "internalType": "address",
          "name": "to",
          "type": "address"
        },
        {
          "internalType": "uint256",
          "name": "tokenId",
          "type": "uint256"
        }
      ],
      "name": "safeTransferFrom",
      "outputs": [],
      "stateMutability": "nonpayable",
      "type": "function"
    },
    {
      "inputs": [
        {
          "internalType": "address",
          "name": "from",
          "type": "address"
        },
        {
          "internalType": "address",
          "name": "to",
          "type": "address"
        },
        {
          "internalType": "uint256",
          "name": "tokenId",
          "type": "uint256"
        },
        {
          "internalType": "bytes",
          "name": "_data",
          "type": "bytes"
        }
      ],
      "name": "safeTransferFrom",
      "outputs": [],
      "stateMutability": "nonpayable",
      "type": "function"
    },
    {
      "inputs": [
        {
          "internalType": "address",
          "name": "operator",
          "type": "address"
        },
        {
          "internalType": "bool",
          "name": "approved",
          "type": "bool"
        }
      ],
      "name": "setApprovalForAll",
      "outputs": [],
      "stateMutability": "nonpayable",
      "type": "function"
    },
    {
      "inputs": [],
      "name": "soulmate",
      "outputs": [
        {
          "internalType": "address",
          "name": "",
          "type": "address"
        }
      ],
      "stateMutability": "view",
      "type": "function"
    },
    {
      "inputs": [],
      "name": "startARelationship",
      "outputs": [],
      "stateMutability": "payable",
      "type": "function"
    },
    {
      "inputs": [
        {
          "internalType": "bytes4",
          "name": "interfaceId",
          "type": "bytes4"
        }
      ],
      "name": "supportsInterface",
      "outputs": [
        {
          "internalType": "bool",
          "name": "",
          "type": "bool"
        }
      ],
      "stateMutability": "view",
      "type": "function"
    },
    {
      "inputs": [],
      "name": "symbol",
      "outputs": [
        {
          "internalType": "string",
          "name": "",
          "type": "string"
        }
      ],
      "stateMutability": "view",
      "type": "function"
    },
    {
      "inputs": [
        {
          "internalType": "uint256",
          "name": "index",
          "type": "uint256"
        }
      ],
      "name": "tokenByIndex",
      "outputs": [
        {
          "internalType": "uint256",
          "name": "",
          "type": "uint256"
        }
      ],
      "stateMutability": "view",
      "type": "function"
    },
    {
      "inputs": [
        {
          "internalType": "address",
          "name": "owner",
          "type": "address"
        },
        {
          "internalType": "uint256",
          "name": "index",
          "type": "uint256"
        }
      ],
      "name": "tokenOfOwnerByIndex",
      "outputs": [
        {
          "internalType": "uint256",
          "name": "",
          "type": "uint256"
        }
      ],
      "stateMutability": "view",
      "type": "function"
    },
    {
      "inputs": [
        {
          "internalType": "uint256",
          "name": "tokenId",
          "type": "uint256"
        }
      ],
      "name": "tokenURI",
      "outputs": [
        {
          "internalType": "string",
          "name": "",
          "type": "string"
        }
      ],
      "stateMutability": "view",
      "type": "function"
    },
    {
      "inputs": [],
      "name": "totalSupply",
      "outputs": [
        {
          "internalType": "uint256",
          "name": "",
          "type": "uint256"
        }
      ],
      "stateMutability": "view",
      "type": "function"
    },
    {
      "inputs": [
        {
          "internalType": "address",
          "name": "from",
          "type": "address"
        },
        {
          "internalType": "address",
          "name": "to",
          "type": "address"
        },
        {
          "internalType": "uint256",
          "name": "tokenId",
          "type": "uint256"
        }
      ],
      "name": "transferFrom",
      "outputs": [],
      "stateMutability": "nonpayable",
      "type": "function"
    },
    {
      "inputs": [
        {
          "internalType": "address",
          "name": "newOwner",
          "type": "address"
        }
      ],
      "name": "transferOwnership",
      "outputs": [],
      "stateMutability": "nonpayable",
      "type": "function"
    },
    {
      "inputs": [
        {
          "internalType": "uint256",
          "name": "tokenId",
          "type": "uint256"
        }
      ],
      "name": "woo",
      "outputs": [],
      "stateMutability": "nonpayable",
      "type": "function"
    }
  ],
  "transactionHash": "0xa6ee7b51fa6954556d108151b7779f2d84ba2df910b0d3159e6c39ffc3dfcdea",
  "args": [],
  "solcInputHash": "fabf30edffa538d83af136804dfbb5a6",
  "bytecode": "0x60806040526040518061026001604052806040518060400160405280600a81526020017f506c61792076696479610000000000000000000000000000000000000000000081525081526020016040518060400160405280600981526020017f4561742072616d656e000000000000000000000000000000000000000000000081525081526020016040518060400160405280600b81526020017f576174636820616e696d6500000000000000000000000000000000000000000081525081526020016040518060400160405280600681526020017f437564646c65000000000000000000000000000000000000000000000000000081525081526020016040518060400160405280600c81526020017f476f206f6e20612068696b65000000000000000000000000000000000000000081525081526020016040518060400160405280601281526020017f5265616420746f2065616368206f74686572000000000000000000000000000081525081526020016040518060400160405280601181526020017f4e69676874206f6e2074686520746f776e00000000000000000000000000000081525081526020016040518060400160405280601181526020017f57616c6b206f6e2074686520626561636800000000000000000000000000000081525081526020016040518060400160405280600981526020017f526f6c6520706c6179000000000000000000000000000000000000000000000081525081526020016040518060400160405280600d81526020017f53686f7020746f6765746865720000000000000000000000000000000000000081525081526020016040518060400160405280600a81526020017f52656465636f726174650000000000000000000000000000000000000000000081525081526020016040518060400160405280600d81526020017f476f20746f207468652067796d0000000000000000000000000000000000000081525081526020016040518060400160405280600581526020017f44616e636500000000000000000000000000000000000000000000000000000081525081526020016040518060400160405280600681526020017f54726176656c000000000000000000000000000000000000000000000000000081525081526020016040518060400160405280601481526020017f476f737369702061626f757420667269656e647300000000000000000000000081525081526020016040518060400160405280600e81526020017f476f207369676874736565696e6700000000000000000000000000000000000081525081526020016040518060400160405280600f81526020017f436c65616e2074686520686f757365000000000000000000000000000000000081525081526020016040518060400160405280601081526020017f4d616b6520686f6d65206d6f766965730000000000000000000000000000000081525081526020016040518060400160405280600581526020017f46696768740000000000000000000000000000000000000000000000000000008152508152506011906013620004819291906200062c565b503480156200048f57600080fd5b506040518060400160405280600581526020017f4173616d690000000000000000000000000000000000000000000000000000008152506040518060400160405280600581526020017f4153414d4900000000000000000000000000000000000000000000000000000081525081600090805190602001906200051492919062000693565b5080600190805190602001906200052d92919062000693565b50505062000550620005446200055e60201b60201c565b6200056660201b60201c565b6001600b8190555062000816565b600033905090565b6000600a60009054906101000a900473ffffffffffffffffffffffffffffffffffffffff16905081600a60006101000a81548173ffffffffffffffffffffffffffffffffffffffff021916908373ffffffffffffffffffffffffffffffffffffffff1602179055508173ffffffffffffffffffffffffffffffffffffffff168173ffffffffffffffffffffffffffffffffffffffff167f8be0079c531659141344cd1fd0a4f28419497f9722a3daafe3b4186f6b6457e060405160405180910390a35050565b82805482825590600052602060002090810192821562000680579160200282015b828111156200067f5782518290805190602001906200066e92919062000693565b50916020019190600101906200064d565b5b5090506200068f919062000724565b5090565b828054620006a190620007b1565b90600052602060002090601f016020900481019282620006c5576000855562000711565b82601f10620006e057805160ff191683800117855562000711565b8280016001018555821562000711579182015b8281111562000710578251825591602001919060010190620006f3565b5b5090506200072091906200074c565b5090565b5b808211156200074857600081816200073e91906200076b565b5060010162000725565b5090565b5b80821115620007675760008160009055506001016200074d565b5090565b5080546200077990620007b1565b6000825580601f106200078d5750620007ae565b601f016020900490600052602060002090810190620007ad91906200074c565b5b50565b60006002820490506001821680620007ca57607f821691505b60208210811415620007e157620007e0620007e7565b5b50919050565b7f4e487b7100000000000000000000000000000000000000000000000000000000600052602260045260246000fd5b61512180620008266000396000f3fe6080604052600436106101cd5760003560e01c806370a08231116100f7578063b88d4fde11610095578063e7c4858a11610064578063e7c4858a1461067f578063e985e9c5146106aa578063eb660e77146106e7578063f2fde38b14610710576101cd565b8063b88d4fde146105c3578063c13ec1f6146105ec578063c87b56dd14610617578063dcc2e43814610654576101cd565b80638da5cb5b116100d15780638da5cb5b1461050757806395d89b4114610532578063a22cb4651461055d578063ab0254a814610586576101cd565b806370a0823114610488578063715018a6146104c55780638d859f3e146104dc576101cd565b806332cb6b0c1161016f578063594f32c81161013e578063594f32c8146103ed57806362e8142a146103f75780636352211e1461043457806364ec8bdb14610471576101cd565b806332cb6b0c1461033157806342842e0e1461035c57806344585c25146103855780634f6ccce7146103b0576101cd565b8063095ea7b3116101ab578063095ea7b31461027757806318160ddd146102a057806323b872dd146102cb5780632f745c59146102f4576101cd565b806301ffc9a7146101d257806306fdde031461020f578063081812fc1461023a575b600080fd5b3480156101de57600080fd5b506101f960048036038101906101f49190613478565b610739565b6040516102069190613df0565b60405180910390f35b34801561021b57600080fd5b506102246107b3565b6040516102319190613e0b565b60405180910390f35b34801561024657600080fd5b50610261600480360381019061025c91906134ca565b610845565b60405161026e9190613d52565b60405180910390f35b34801561028357600080fd5b5061029e6004803603810190610299919061343c565b6108ca565b005b3480156102ac57600080fd5b506102b56109e2565b6040516102c2919061412d565b60405180910390f35b3480156102d757600080fd5b506102f260048036038101906102ed9190613336565b6109ef565b005b34801561030057600080fd5b5061031b6004803603810190610316919061343c565b610a4f565b604051610328919061412d565b60405180910390f35b34801561033d57600080fd5b50610346610af4565b604051610353919061412d565b60405180910390f35b34801561036857600080fd5b50610383600480360381019061037e9190613336565b610af9565b005b34801561039157600080fd5b5061039a610b19565b6040516103a79190613e0b565b60405180910390f35b3480156103bc57600080fd5b506103d760048036038101906103d291906134ca565b610bee565b6040516103e4919061412d565b60405180910390f35b6103f5610c85565b005b34801561040357600080fd5b5061041e600480360381019061041991906134ca565b610e59565b60405161042b9190613e0b565b60405180910390f35b34801561044057600080fd5b5061045b600480360381019061045691906134ca565b610fce565b6040516104689190613d52565b60405180910390f35b34801561047d57600080fd5b50610486611080565b005b34801561049457600080fd5b506104af60048036038101906104aa91906132d1565b6111dc565b6040516104bc919061412d565b60405180910390f35b3480156104d157600080fd5b506104da611294565b005b3480156104e857600080fd5b506104f161131c565b6040516104fe919061412d565b60405180910390f35b34801561051357600080fd5b5061051c611327565b6040516105299190613d52565b60405180910390f35b34801561053e57600080fd5b50610547611351565b6040516105549190613e0b565b60405180910390f35b34801561056957600080fd5b50610584600480360381019061057f9190613400565b6113e3565b005b34801561059257600080fd5b506105ad60048036038101906105a891906134ca565b611564565b6040516105ba919061412d565b60405180910390f35b3480156105cf57600080fd5b506105ea60048036038101906105e59190613385565b61157c565b005b3480156105f857600080fd5b506106016115de565b60405161060e919061412d565b60405180910390f35b34801561062357600080fd5b5061063e600480360381019061063991906134ca565b6115e4565b60405161064b9190613e0b565b60405180910390f35b34801561066057600080fd5b506106696118a6565b6040516106769190613d52565b60405180910390f35b34801561068b57600080fd5b506106946118cc565b6040516106a1919061412d565b60405180910390f35b3480156106b657600080fd5b506106d160048036038101906106cc91906132fa565b6118d2565b6040516106de9190613df0565b60405180910390f35b3480156106f357600080fd5b5061070e600480360381019061070991906134ca565b611966565b005b34801561071c57600080fd5b50610737600480360381019061073291906132d1565b611cb9565b005b60007f780e9d63000000000000000000000000000000000000000000000000000000007bffffffffffffffffffffffffffffffffffffffffffffffffffffffff1916827bffffffffffffffffffffffffffffffffffffffffffffffffffffffff191614806107ac57506107ab82611db1565b5b9050919050565b6060600080546107c2906143c1565b80601f01602080910402602001604051908101604052809291908181526020018280546107ee906143c1565b801561083b5780601f106108105761010080835404028352916020019161083b565b820191906000526020600020905b81548152906001019060200180831161081e57829003601f168201915b5050505050905090565b600061085082611e93565b61088f576040517f08c379a000000000000000000000000000000000000000000000000000000000815260040161088690613fcd565b60405180910390fd5b6004600083815260200190815260200160002060009054906101000a900473ffffffffffffffffffffffffffffffffffffffff169050919050565b60006108d582610fce565b90508073ffffffffffffffffffffffffffffffffffffffff168373ffffffffffffffffffffffffffffffffffffffff161415610946576040517f08c379a000000000000000000000000000000000000000000000000000000000815260040161093d9061402d565b60405180910390fd5b8073ffffffffffffffffffffffffffffffffffffffff16610965611eff565b73ffffffffffffffffffffffffffffffffffffffff16148061099457506109938161098e611eff565b6118d2565b5b6109d3576040517f08c379a00000000000000000000000000000000000000000000000000000000081526004016109ca90613f2d565b60405180910390fd5b6109dd8383611f07565b505050565b6000600880549050905090565b610a006109fa611eff565b82611fc0565b610a3f576040517f08c379a0000000000000000000000000000000000000000000000000000000008152600401610a369061406d565b60405180910390fd5b610a4a83838361209e565b505050565b6000610a5a836111dc565b8210610a9b576040517f08c379a0000000000000000000000000000000000000000000000000000000008152600401610a9290613e2d565b60405180910390fd5b600660008473ffffffffffffffffffffffffffffffffffffffff1673ffffffffffffffffffffffffffffffffffffffff168152602001908152602001600020600083815260200190815260200160002054905092915050565b600a81565b610b148383836040518060200160405280600081525061157c565b505050565b6060600a610b256109e2565b1015610b68576040518060400160405280600781526020017f41736c6565702e000000000000000000000000000000000000000000000000008152509050610beb565b610b706122fa565b15610bb2576040518060400160405280600681526020017f54697265642e00000000000000000000000000000000000000000000000000008152509050610beb565b6040518060400160405280601381526020017f4578636974656420746f2073656520796f752e0000000000000000000000000081525090505b90565b6000610bf86109e2565b8210610c39576040517f08c379a0000000000000000000000000000000000000000000000000000000008152600401610c30906140cd565b60405180910390fd5b60088281548110610c73577f4e487b7100000000000000000000000000000000000000000000000000000000600052603260045260246000fd5b90600052602060002001549050919050565b6002600b541415610ccb576040517f08c379a0000000000000000000000000000000000000000000000000000000008152600401610cc29061410d565b60405180910390fd5b6002600b8190555066f8b0a10e4700003414610d1c576040517f08c379a0000000000000000000000000000000000000000000000000000000008152600401610d139061404d565b60405180910390fd5b600a610d266109e2565b10610d66576040517f08c379a0000000000000000000000000000000000000000000000000000000008152600401610d5d906140ed565b60405180910390fd5b600073ffffffffffffffffffffffffffffffffffffffff16600d60009054906101000a900473ffffffffffffffffffffffffffffffffffffffff1673ffffffffffffffffffffffffffffffffffffffff1614610df7576040517f08c379a0000000000000000000000000000000000000000000000000000000008152600401610dee90613ead565b60405180910390fd5b6001600c6000610e056109e2565b81526020019081526020016000208190555066f8b0a10e470000600f6000828254610e3091906141f6565b92505081905550610e4f610e42611eff565b610e4a6109e2565b612312565b6001600b81905550565b60606000600c60008481526020019081526020016000205490506001811015610eba576040518060400160405280600881526020017f537472616e676572000000000000000000000000000000000000000000000000815250915050610fc9565b6002811015610f01576040518060400160405280600681526020017f467269656e640000000000000000000000000000000000000000000000000000815250915050610fc9565b6003811015610f48576040518060400160405280600f81526020017f536f6d656f6e65205370656369616c0000000000000000000000000000000000815250915050610fc9565b6005811015610f8f576040518060400160405280600581526020017f4c6f766572000000000000000000000000000000000000000000000000000000815250915050610fc9565b6040518060400160405280600881526020017f536f756c6d6174650000000000000000000000000000000000000000000000008152509150505b919050565b6000806002600084815260200190815260200160002060009054906101000a900473ffffffffffffffffffffffffffffffffffffffff169050600073ffffffffffffffffffffffffffffffffffffffff168173ffffffffffffffffffffffffffffffffffffffff161415611077576040517f08c379a000000000000000000000000000000000000000000000000000000000815260040161106e90613f8d565b60405180910390fd5b80915050919050565b6002600b5414156110c6576040517f08c379a00000000000000000000000000000000000000000000000000000000081526004016110bd9061410d565b60405180910390fd5b6002600b819055506110d6611eff565b73ffffffffffffffffffffffffffffffffffffffff166110f4611327565b73ffffffffffffffffffffffffffffffffffffffff161461114a576040517f08c379a000000000000000000000000000000000000000000000000000000000815260040161114190613fed565b60405180910390fd5b60006010546002600f5461115e919061424c565b61116891906142d7565b9050806010600082825461117c91906141f6565b9250508190555061118b611327565b73ffffffffffffffffffffffffffffffffffffffff166108fc829081150290604051600060405180830381858888f193505050501580156111d0573d6000803e3d6000fd5b50506001600b81905550565b60008073ffffffffffffffffffffffffffffffffffffffff168273ffffffffffffffffffffffffffffffffffffffff16141561124d576040517f08c379a000000000000000000000000000000000000000000000000000000000815260040161124490613f6d565b60405180910390fd5b600360008373ffffffffffffffffffffffffffffffffffffffff1673ffffffffffffffffffffffffffffffffffffffff168152602001908152602001600020549050919050565b61129c611eff565b73ffffffffffffffffffffffffffffffffffffffff166112ba611327565b73ffffffffffffffffffffffffffffffffffffffff1614611310576040517f08c379a000000000000000000000000000000000000000000000000000000000815260040161130790613fed565b60405180910390fd5b61131a6000612330565b565b66f8b0a10e47000081565b6000600a60009054906101000a900473ffffffffffffffffffffffffffffffffffffffff16905090565b606060018054611360906143c1565b80601f016020809104026020016040519081016040528092919081815260200182805461138c906143c1565b80156113d95780601f106113ae576101008083540402835291602001916113d9565b820191906000526020600020905b8154815290600101906020018083116113bc57829003601f168201915b5050505050905090565b6113eb611eff565b73ffffffffffffffffffffffffffffffffffffffff168273ffffffffffffffffffffffffffffffffffffffff161415611459576040517f08c379a000000000000000000000000000000000000000000000000000000000815260040161145090613eed565b60405180910390fd5b8060056000611466611eff565b73ffffffffffffffffffffffffffffffffffffffff1673ffffffffffffffffffffffffffffffffffffffff16815260200190815260200160002060008473ffffffffffffffffffffffffffffffffffffffff1673ffffffffffffffffffffffffffffffffffffffff16815260200190815260200160002060006101000a81548160ff0219169083151502179055508173ffffffffffffffffffffffffffffffffffffffff16611513611eff565b73ffffffffffffffffffffffffffffffffffffffff167f17307eab39ab6107e8899845ad3d59bd9653f200f220920489ca2b5937696c31836040516115589190613df0565b60405180910390a35050565b600c6020528060005260406000206000915090505481565b61158d611587611eff565b83611fc0565b6115cc576040517f08c379a00000000000000000000000000000000000000000000000000000000081526004016115c39061406d565b60405180910390fd5b6115d8848484846123f6565b50505050565b600f5481565b6060600a82141561163b5761161560405160200161160190613bf4565b604051602081830303815290604052612452565b6040516020016116259190613c09565b60405160208183030381529060405290506118a1565b600061164683612610565b9050600a8310156116805761165a83612610565b60405160200161166a9190613bd2565b60405160208183030381529060405290506116ef565b60648310156116b85761169283612610565b6040516020016116a29190613c70565b60405160208183030381529060405290506116ee565b6103e88310156116ed576116cb83612610565b6040516020016116db9190613bb0565b60405160208183030381529060405290505b5b5b6000836040516020016117029190613d37565b6040516020818303038152906040528051906020012060001c9050600082611729866127bd565b60405160200161173a929190613c2b565b604051602081830303815290604052905061187c8361175887610e59565b60006002896117679190614477565b146117a7576040518060400160405280600481526020017f4461726b000000000000000000000000000000000000000000000000000000008152506117de565b6040518060400160405280600581526020017f4c696768740000000000000000000000000000000000000000000000000000008152505b6117ff600160078b6117f09190614477565b6117fa91906141f6565b612610565b60118080549050886118119190614477565b81548110611848577f4e487b7100000000000000000000000000000000000000000000000000000000600052603260045260246000fd5b906000526020600020018660405160200161186896959493929190613c92565b604051602081830303815290604052612452565b60405160200161188c9190613c09565b60405160208183030381529060405293505050505b919050565b600d60009054906101000a900473ffffffffffffffffffffffffffffffffffffffff1681565b600e5481565b6000600560008473ffffffffffffffffffffffffffffffffffffffff1673ffffffffffffffffffffffffffffffffffffffff16815260200190815260200160002060008373ffffffffffffffffffffffffffffffffffffffff1673ffffffffffffffffffffffffffffffffffffffff16815260200190815260200160002060009054906101000a900460ff16905092915050565b6002600b5414156119ac576040517f08c379a00000000000000000000000000000000000000000000000000000000081526004016119a39061410d565b60405180910390fd5b6002600b81905550600a6119be6109e2565b146119fe576040517f08c379a00000000000000000000000000000000000000000000000000000000081526004016119f5906140ad565b60405180910390fd5b611a06611eff565b73ffffffffffffffffffffffffffffffffffffffff16611a2582610fce565b73ffffffffffffffffffffffffffffffffffffffff1614611a7b576040517f08c379a0000000000000000000000000000000000000000000000000000000008152600401611a7290613f4d565b60405180910390fd5b611a836122fa565b15611ac3576040517f08c379a0000000000000000000000000000000000000000000000000000000008152600401611aba9061408d565b60405180910390fd5b600073ffffffffffffffffffffffffffffffffffffffff16600d60009054906101000a900473ffffffffffffffffffffffffffffffffffffffff1673ffffffffffffffffffffffffffffffffffffffff1614611b54576040517f08c379a0000000000000000000000000000000000000000000000000000000008152600401611b4b90613ead565b60405180910390fd5b6001600c60008381526020019081526020016000206000828254611b7891906141f6565b9250508190555042600e819055507fa41348ded2f7bdca31ec42531856e0491b28beda6ef83a18e52c096b9bb5357d611baf611eff565b82600c600085815260200190815260200160002054604051611bd393929190613db9565b60405180910390a16005600c6000838152602001908152602001600020541415611cae57611bff611eff565b600d60006101000a81548173ffffffffffffffffffffffffffffffffffffffff021916908373ffffffffffffffffffffffffffffffffffffffff160217905550611c51611c4a611eff565b600a612312565b611c59611eff565b73ffffffffffffffffffffffffffffffffffffffff166108fc6002600f54611c81919061424c565b9081150290604051600060405180830381858888f19350505050158015611cac573d6000803e3d6000fd5b505b6001600b8190555050565b611cc1611eff565b73ffffffffffffffffffffffffffffffffffffffff16611cdf611327565b73ffffffffffffffffffffffffffffffffffffffff1614611d35576040517f08c379a0000000000000000000000000000000000000000000000000000000008152600401611d2c90613fed565b60405180910390fd5b600073ffffffffffffffffffffffffffffffffffffffff168173ffffffffffffffffffffffffffffffffffffffff161415611da5576040517f08c379a0000000000000000000000000000000000000000000000000000000008152600401611d9c90613e6d565b60405180910390fd5b611dae81612330565b50565b60007f80ac58cd000000000000000000000000000000000000000000000000000000007bffffffffffffffffffffffffffffffffffffffffffffffffffffffff1916827bffffffffffffffffffffffffffffffffffffffffffffffffffffffff19161480611e7c57507f5b5e139f000000000000000000000000000000000000000000000000000000007bffffffffffffffffffffffffffffffffffffffffffffffffffffffff1916827bffffffffffffffffffffffffffffffffffffffffffffffffffffffff1916145b80611e8c5750611e8b82612932565b5b9050919050565b60008073ffffffffffffffffffffffffffffffffffffffff166002600084815260200190815260200160002060009054906101000a900473ffffffffffffffffffffffffffffffffffffffff1673ffffffffffffffffffffffffffffffffffffffff1614159050919050565b600033905090565b816004600083815260200190815260200160002060006101000a81548173ffffffffffffffffffffffffffffffffffffffff021916908373ffffffffffffffffffffffffffffffffffffffff160217905550808273ffffffffffffffffffffffffffffffffffffffff16611f7a83610fce565b73ffffffffffffffffffffffffffffffffffffffff167f8c5be1e5ebec7d5bd14f71427d1e84f3dd0314c0f7b2291e5b200ac8c7c3b92560405160405180910390a45050565b6000611fcb82611e93565b61200a576040517f08c379a000000000000000000000000000000000000000000000000000000000815260040161200190613f0d565b60405180910390fd5b600061201583610fce565b90508073ffffffffffffffffffffffffffffffffffffffff168473ffffffffffffffffffffffffffffffffffffffff16148061208457508373ffffffffffffffffffffffffffffffffffffffff1661206c84610845565b73ffffffffffffffffffffffffffffffffffffffff16145b80612095575061209481856118d2565b5b91505092915050565b8273ffffffffffffffffffffffffffffffffffffffff166120be82610fce565b73ffffffffffffffffffffffffffffffffffffffff1614612114576040517f08c379a000000000000000000000000000000000000000000000000000000000815260040161210b9061400d565b60405180910390fd5b600073ffffffffffffffffffffffffffffffffffffffff168273ffffffffffffffffffffffffffffffffffffffff161415612184576040517f08c379a000000000000000000000000000000000000000000000000000000000815260040161217b90613ecd565b60405180910390fd5b61218f83838361299c565b61219a600082611f07565b6001600360008573ffffffffffffffffffffffffffffffffffffffff1673ffffffffffffffffffffffffffffffffffffffff16815260200190815260200160002060008282546121ea91906142d7565b925050819055506001600360008473ffffffffffffffffffffffffffffffffffffffff1673ffffffffffffffffffffffffffffffffffffffff168152602001908152602001600020600082825461224191906141f6565b92505081905550816002600083815260200190815260200160002060006101000a81548173ffffffffffffffffffffffffffffffffffffffff021916908373ffffffffffffffffffffffffffffffffffffffff160217905550808273ffffffffffffffffffffffffffffffffffffffff168473ffffffffffffffffffffffffffffffffffffffff167fddf252ad1be2c89b69c2b068fc378daa952ba7f163c4a11628f55a4df523b3ef60405160405180910390a4505050565b600042600a600e5461230c91906141f6565b11905090565b61232c828260405180602001604052806000815250612ab0565b5050565b6000600a60009054906101000a900473ffffffffffffffffffffffffffffffffffffffff16905081600a60006101000a81548173ffffffffffffffffffffffffffffffffffffffff021916908373ffffffffffffffffffffffffffffffffffffffff1602179055508173ffffffffffffffffffffffffffffffffffffffff168173ffffffffffffffffffffffffffffffffffffffff167f8be0079c531659141344cd1fd0a4f28419497f9722a3daafe3b4186f6b6457e060405160405180910390a35050565b61240184848461209e565b61240d84848484612b0b565b61244c576040517f08c379a000000000000000000000000000000000000000000000000000000000815260040161244390613e4d565b60405180910390fd5b50505050565b6060600082519050600081141561247b576040518060200160405280600081525091505061260b565b6000600360028361248c91906141f6565b612496919061424c565b60046124a2919061427d565b905060006020826124b391906141f6565b67ffffffffffffffff8111156124f2577f4e487b7100000000000000000000000000000000000000000000000000000000600052604160045260246000fd5b6040519080825280601f01601f1916602001820160405280156125245781602001600182028036833780820191505090505b50905060006040518060600160405280604081526020016150ac604091399050600181016020830160005b868110156125c85760038101905062ffffff818a015116603f8160121c168401518060081b905060ff603f83600c1c1686015116810190508060081b905060ff603f8360061c1686015116810190508060081b905060ff603f831686015116810190508060e01b9050808452600484019350505061254f565b5060038606600181146125e257600281146125f2576125fd565b613d3d60f01b60028303526125fd565b603d60f81b60018303525b508484525050819450505050505b919050565b60606000821415612658576040518060400160405280600181526020017f300000000000000000000000000000000000000000000000000000000000000081525090506127b8565b600082905060005b6000821461268a57808061267390614424565b915050600a82612683919061424c565b9150612660565b60008167ffffffffffffffff8111156126cc577f4e487b7100000000000000000000000000000000000000000000000000000000600052604160045260246000fd5b6040519080825280601f01601f1916602001820160405280156126fe5781602001600182028036833780820191505090505b5090505b600085146127b15760018261271791906142d7565b9150600a856127269190614477565b603061273291906141f6565b60f81b81838151811061276e577f4e487b7100000000000000000000000000000000000000000000000000000000600052603260045260246000fd5b60200101907effffffffffffffffffffffffffffffffffffffffffffffffffffffffffffff1916908160001a905350600a856127aa919061424c565b9450612702565b8093505050505b919050565b60606000600c6000848152602001908152602001600020549050600181101561281e576040518060400160405280600181526020017f310000000000000000000000000000000000000000000000000000000000000081525091505061292d565b6002811015612865576040518060400160405280600181526020017f320000000000000000000000000000000000000000000000000000000000000081525091505061292d565b600a8110156128ac576040518060400160405280600181526020017f330000000000000000000000000000000000000000000000000000000000000081525091505061292d565b601e8110156128f3576040518060400160405280600181526020017f340000000000000000000000000000000000000000000000000000000000000081525091505061292d565b6040518060400160405280600181526020017f35000000000000000000000000000000000000000000000000000000000000008152509150505b919050565b60007f01ffc9a7000000000000000000000000000000000000000000000000000000007bffffffffffffffffffffffffffffffffffffffffffffffffffffffff1916827bffffffffffffffffffffffffffffffffffffffffffffffffffffffff1916149050919050565b6129a7838383612ca2565b600073ffffffffffffffffffffffffffffffffffffffff168373ffffffffffffffffffffffffffffffffffffffff1614156129ea576129e581612ca7565b612a29565b8173ffffffffffffffffffffffffffffffffffffffff168373ffffffffffffffffffffffffffffffffffffffff1614612a2857612a278382612cf0565b5b5b600073ffffffffffffffffffffffffffffffffffffffff168273ffffffffffffffffffffffffffffffffffffffff161415612a6c57612a6781612e5d565b612aab565b8273ffffffffffffffffffffffffffffffffffffffff168273ffffffffffffffffffffffffffffffffffffffff1614612aaa57612aa98282612fa0565b5b5b505050565b612aba838361301f565b612ac76000848484612b0b565b612b06576040517f08c379a0000000000000000000000000000000000000000000000000000000008152600401612afd90613e4d565b60405180910390fd5b505050565b6000612b2c8473ffffffffffffffffffffffffffffffffffffffff166131ed565b15612c95578373ffffffffffffffffffffffffffffffffffffffff1663150b7a02612b55611eff565b8786866040518563ffffffff1660e01b8152600401612b779493929190613d6d565b602060405180830381600087803b158015612b9157600080fd5b505af1925050508015612bc257506040513d601f19601f82011682018060405250810190612bbf91906134a1565b60015b612c45573d8060008114612bf2576040519150601f19603f3d011682016040523d82523d6000602084013e612bf7565b606091505b50600081511415612c3d576040517f08c379a0000000000000000000000000000000000000000000000000000000008152600401612c3490613e4d565b60405180910390fd5b805181602001fd5b63150b7a0260e01b7bffffffffffffffffffffffffffffffffffffffffffffffffffffffff1916817bffffffffffffffffffffffffffffffffffffffffffffffffffffffff191614915050612c9a565b600190505b949350505050565b505050565b6008805490506009600083815260200190815260200160002081905550600881908060018154018082558091505060019003906000526020600020016000909190919091505550565b60006001612cfd846111dc565b612d0791906142d7565b9050600060076000848152602001908152602001600020549050818114612dec576000600660008673ffffffffffffffffffffffffffffffffffffffff1673ffffffffffffffffffffffffffffffffffffffff168152602001908152602001600020600084815260200190815260200160002054905080600660008773ffffffffffffffffffffffffffffffffffffffff1673ffffffffffffffffffffffffffffffffffffffff168152602001908152602001600020600084815260200190815260200160002081905550816007600083815260200190815260200160002081905550505b6007600084815260200190815260200160002060009055600660008573ffffffffffffffffffffffffffffffffffffffff1673ffffffffffffffffffffffffffffffffffffffff16815260200190815260200160002060008381526020019081526020016000206000905550505050565b60006001600880549050612e7191906142d7565b9050600060096000848152602001908152602001600020549050600060088381548110612ec7577f4e487b7100000000000000000000000000000000000000000000000000000000600052603260045260246000fd5b906000526020600020015490508060088381548110612f0f577f4e487b7100000000000000000000000000000000000000000000000000000000600052603260045260246000fd5b906000526020600020018190555081600960008381526020019081526020016000208190555060096000858152602001908152602001600020600090556008805480612f84577f4e487b7100000000000000000000000000000000000000000000000000000000600052603160045260246000fd5b6001900381819060005260206000200160009055905550505050565b6000612fab836111dc565b905081600660008573ffffffffffffffffffffffffffffffffffffffff1673ffffffffffffffffffffffffffffffffffffffff168152602001908152602001600020600083815260200190815260200160002081905550806007600084815260200190815260200160002081905550505050565b600073ffffffffffffffffffffffffffffffffffffffff168273ffffffffffffffffffffffffffffffffffffffff16141561308f576040517f08c379a000000000000000000000000000000000000000000000000000000000815260040161308690613fad565b60405180910390fd5b61309881611e93565b156130d8576040517f08c379a00000000000000000000000000000000000000000000000000000000081526004016130cf90613e8d565b60405180910390fd5b6130e46000838361299c565b6001600360008473ffffffffffffffffffffffffffffffffffffffff1673ffffffffffffffffffffffffffffffffffffffff168152602001908152602001600020600082825461313491906141f6565b92505081905550816002600083815260200190815260200160002060006101000a81548173ffffffffffffffffffffffffffffffffffffffff021916908373ffffffffffffffffffffffffffffffffffffffff160217905550808273ffffffffffffffffffffffffffffffffffffffff16600073ffffffffffffffffffffffffffffffffffffffff167fddf252ad1be2c89b69c2b068fc378daa952ba7f163c4a11628f55a4df523b3ef60405160405180910390a45050565b600080823b905060008111915050919050565b600061321361320e8461416d565b614148565b90508281526020810184848401111561322b57600080fd5b61323684828561437f565b509392505050565b60008135905061324d8161504f565b92915050565b60008135905061326281615066565b92915050565b6000813590506132778161507d565b92915050565b60008151905061328c8161507d565b92915050565b600082601f8301126132a357600080fd5b81356132b3848260208601613200565b91505092915050565b6000813590506132cb81615094565b92915050565b6000602082840312156132e357600080fd5b60006132f18482850161323e565b91505092915050565b6000806040838503121561330d57600080fd5b600061331b8582860161323e565b925050602061332c8582860161323e565b9150509250929050565b60008060006060848603121561334b57600080fd5b60006133598682870161323e565b935050602061336a8682870161323e565b925050604061337b868287016132bc565b9150509250925092565b6000806000806080858703121561339b57600080fd5b60006133a98782880161323e565b94505060206133ba8782880161323e565b93505060406133cb878288016132bc565b925050606085013567ffffffffffffffff8111156133e857600080fd5b6133f487828801613292565b91505092959194509250565b6000806040838503121561341357600080fd5b60006134218582860161323e565b925050602061343285828601613253565b9150509250929050565b6000806040838503121561344f57600080fd5b600061345d8582860161323e565b925050602061346e858286016132bc565b9150509250929050565b60006020828403121561348a57600080fd5b600061349884828501613268565b91505092915050565b6000602082840312156134b357600080fd5b60006134c18482850161327d565b91505092915050565b6000602082840312156134dc57600080fd5b60006134ea848285016132bc565b91505092915050565b6134fc8161430b565b82525050565b61350b8161431d565b82525050565b600061351c826141b3565b61352681856141c9565b935061353681856020860161438e565b61353f81614564565b840191505092915050565b6000613555826141be565b61355f81856141da565b935061356f81856020860161438e565b61357881614564565b840191505092915050565b600061358e826141be565b61359881856141eb565b93506135a881856020860161438e565b80840191505092915050565b600081546135c1816143c1565b6135cb81866141eb565b945060018216600081146135e657600181146135f75761362a565b60ff1983168652818601935061362a565b6136008561419e565b60005b8381101561362257815481890152600182019150602081019050613603565b838801955050505b50505092915050565b60006136406001836141eb565b915061364b82614575565b600182019050919050565b6000613663602b836141da565b915061366e8261459e565b604082019050919050565b60006136866032836141da565b9150613691826145ed565b604082019050919050565b60006136a96026836141da565b91506136b48261463c565b604082019050919050565b60006136cc602c836141eb565b91506136d78261468b565b602c82019050919050565b60006136ef601c836141da565b91506136fa826146da565b602082019050919050565b60006137126003836141eb565b915061371d82614703565b600382019050919050565b6000613735601e836141da565b91506137408261472c565b602082019050919050565b6000613758607a836141eb565b915061376382614755565b607a82019050919050565b600061377b6024836141da565b9150613786826147f0565b604082019050919050565b600061379e6019836141da565b91506137a98261483f565b602082019050919050565b60006137c1602c836141da565b91506137cc82614868565b604082019050919050565b60006137e46038836141da565b91506137ef826148b7565b604082019050919050565b6000613807601d836141da565b915061381282614906565b602082019050919050565b600061382a602a836141da565b91506138358261492f565b604082019050919050565b600061384d6029836141da565b91506138588261497e565b604082019050919050565b60006138706002836141eb565b915061387b826149cd565b600282019050919050565b60006138936011836141eb565b915061389e826149f6565b601182019050919050565b60006138b66020836141da565b91506138c182614a1f565b602082019050919050565b60006138da61011f836141eb565b91506138e582614a48565b61011f82019050919050565b60006138fe602c836141da565b915061390982614ba2565b604082019050919050565b60006139216020836141da565b915061392c82614bf1565b602082019050919050565b60006139446029836141da565b915061394f82614c1a565b604082019050919050565b6000613967605c836141eb565b915061397282614c69565b605c82019050919050565b600061398a6033836141eb565b915061399582614cde565b603382019050919050565b60006139ad6021836141da565b91506139b882614d2d565b604082019050919050565b60006139d06029836141da565b91506139db82614d7c565b604082019050919050565b60006139f36004836141eb565b91506139fe82614dcb565b600482019050919050565b6000613a16601d836141eb565b9150613a2182614df4565b601d82019050919050565b6000613a396031836141da565b9150613a4482614e1d565b604082019050919050565b6000613a5c6010836141da565b9150613a6782614e6c565b602082019050919050565b6000613a7f6013836141da565b9150613a8a82614e95565b602082019050919050565b6000613aa2602c836141da565b9150613aad82614ebe565b604082019050919050565b6000613ac56001836141eb565b9150613ad082614f0d565b600182019050919050565b6000613ae8602c836141eb565b9150613af382614f36565b602c82019050919050565b6000613b0b6021836141da565b9150613b1682614f85565b604082019050919050565b6000613b2e6002836141eb565b9150613b3982614fd4565b600282019050919050565b6000613b51601f836141da565b9150613b5c82614ffd565b602082019050919050565b6000613b746018836141eb565b9150613b7f82615026565b601882019050919050565b613b9381614375565b82525050565b613baa613ba582614375565b61446d565b82525050565b6000613bbb82613633565b9150613bc78284613583565b915081905092915050565b6000613bdd82613705565b9150613be98284613583565b915081905092915050565b6000613bff826138cc565b9150819050919050565b6000613c1482613a09565b9150613c208284613583565b915081905092915050565b6000613c3682613adb565b9150613c428285613583565b9150613c4d82613ab8565b9150613c598284613583565b9150613c64826139e6565b91508190509392505050565b6000613c7b82613b21565b9150613c878284613583565b915081905092915050565b6000613c9d82613b67565b9150613ca98289613583565b9150613cb48261374b565b9150613cc08288613583565b9150613ccb826136bf565b9150613cd78287613583565b9150613ce28261397d565b9150613cee8286613583565b9150613cf98261395a565b9150613d0582856135b4565b9150613d1082613886565b9150613d1c8284613583565b9150613d2782613863565b9150819050979650505050505050565b6000613d438284613b99565b60208201915081905092915050565b6000602082019050613d6760008301846134f3565b92915050565b6000608082019050613d8260008301876134f3565b613d8f60208301866134f3565b613d9c6040830185613b8a565b8181036060830152613dae8184613511565b905095945050505050565b6000606082019050613dce60008301866134f3565b613ddb6020830185613b8a565b613de86040830184613b8a565b949350505050565b6000602082019050613e056000830184613502565b92915050565b60006020820190508181036000830152613e25818461354a565b905092915050565b60006020820190508181036000830152613e4681613656565b9050919050565b60006020820190508181036000830152613e6681613679565b9050919050565b60006020820190508181036000830152613e868161369c565b9050919050565b60006020820190508181036000830152613ea6816136e2565b9050919050565b60006020820190508181036000830152613ec681613728565b9050919050565b60006020820190508181036000830152613ee68161376e565b9050919050565b60006020820190508181036000830152613f0681613791565b9050919050565b60006020820190508181036000830152613f26816137b4565b9050919050565b60006020820190508181036000830152613f46816137d7565b9050919050565b60006020820190508181036000830152613f66816137fa565b9050919050565b60006020820190508181036000830152613f868161381d565b9050919050565b60006020820190508181036000830152613fa681613840565b9050919050565b60006020820190508181036000830152613fc6816138a9565b9050919050565b60006020820190508181036000830152613fe6816138f1565b9050919050565b6000602082019050818103600083015261400681613914565b9050919050565b6000602082019050818103600083015261402681613937565b9050919050565b60006020820190508181036000830152614046816139a0565b9050919050565b60006020820190508181036000830152614066816139c3565b9050919050565b6000602082019050818103600083015261408681613a2c565b9050919050565b600060208201905081810360008301526140a681613a4f565b9050919050565b600060208201905081810360008301526140c681613a72565b9050919050565b600060208201905081810360008301526140e681613a95565b9050919050565b6000602082019050818103600083015261410681613afe565b9050919050565b6000602082019050818103600083015261412681613b44565b9050919050565b60006020820190506141426000830184613b8a565b92915050565b6000614152614163565b905061415e82826143f3565b919050565b6000604051905090565b600067ffffffffffffffff82111561418857614187614535565b5b61419182614564565b9050602081019050919050565b60008190508160005260206000209050919050565b600081519050919050565b600081519050919050565b600082825260208201905092915050565b600082825260208201905092915050565b600081905092915050565b600061420182614375565b915061420c83614375565b9250827fffffffffffffffffffffffffffffffffffffffffffffffffffffffffffffffff03821115614241576142406144a8565b5b828201905092915050565b600061425782614375565b915061426283614375565b925082614272576142716144d7565b5b828204905092915050565b600061428882614375565b915061429383614375565b9250817fffffffffffffffffffffffffffffffffffffffffffffffffffffffffffffffff04831182151516156142cc576142cb6144a8565b5b828202905092915050565b60006142e282614375565b91506142ed83614375565b925082821015614300576142ff6144a8565b5b828203905092915050565b600061431682614355565b9050919050565b60008115159050919050565b60007fffffffff0000000000000000000000000000000000000000000000000000000082169050919050565b600073ffffffffffffffffffffffffffffffffffffffff82169050919050565b6000819050919050565b82818337600083830152505050565b60005b838110156143ac578082015181840152602081019050614391565b838111156143bb576000848401525b50505050565b600060028204905060018216806143d957607f821691505b602082108114156143ed576143ec614506565b5b50919050565b6143fc82614564565b810181811067ffffffffffffffff8211171561441b5761441a614535565b5b80604052505050565b600061442f82614375565b91507fffffffffffffffffffffffffffffffffffffffffffffffffffffffffffffffff821415614462576144616144a8565b5b600182019050919050565b6000819050919050565b600061448282614375565b915061448d83614375565b92508261449d5761449c6144d7565b5b828206905092915050565b7f4e487b7100000000000000000000000000000000000000000000000000000000600052601160045260246000fd5b7f4e487b7100000000000000000000000000000000000000000000000000000000600052601260045260246000fd5b7f4e487b7100000000000000000000000000000000000000000000000000000000600052602260045260246000fd5b7f4e487b7100000000000000000000000000000000000000000000000000000000600052604160045260246000fd5b6000601f19601f8301169050919050565b7f3000000000000000000000000000000000000000000000000000000000000000600082015250565b7f455243373231456e756d657261626c653a206f776e657220696e646578206f7560008201527f74206f6620626f756e6473000000000000000000000000000000000000000000602082015250565b7f4552433732313a207472616e7366657220746f206e6f6e20455243373231526560008201527f63656976657220696d706c656d656e7465720000000000000000000000000000602082015250565b7f4f776e61626c653a206e6577206f776e657220697320746865207a65726f206160008201527f6464726573730000000000000000000000000000000000000000000000000000602082015250565b7f22207d2c207b202274726169745f74797065223a2022416c69676e6d656e742260008201527f2c202276616c7565223a20220000000000000000000000000000000000000000602082015250565b7f4552433732313a20746f6b656e20616c7265616479206d696e74656400000000600082015250565b7f3030300000000000000000000000000000000000000000000000000000000000600082015250565b7f4f75722047462068617320666f756e642068657220736f756c6d6174652e0000600082015250565b7f222c20226465736372697074696f6e223a20224173616d69206973206c6f6f6b60008201527f696e6720666f722068657220736f756c6d6174652e222c20226174747269627560208201527f746573223a205b207b202274726169745f74797065223a202252656c6174696f60408201527f6e7368697020537461747573222c20202276616c7565223a2022000000000000606082015250565b7f4552433732313a207472616e7366657220746f20746865207a65726f2061646460008201527f7265737300000000000000000000000000000000000000000000000000000000602082015250565b7f4552433732313a20617070726f766520746f2063616c6c657200000000000000600082015250565b7f4552433732313a206f70657261746f7220717565727920666f72206e6f6e657860008201527f697374656e7420746f6b656e0000000000000000000000000000000000000000602082015250565b7f4552433732313a20617070726f76652063616c6c6572206973206e6f74206f7760008201527f6e6572206e6f7220617070726f76656420666f7220616c6c0000000000000000602082015250565b7f546861742069736e277420796f75722072656c6174696f6e736869702e000000600082015250565b7f4552433732313a2062616c616e636520717565727920666f7220746865207a6560008201527f726f206164647265737300000000000000000000000000000000000000000000602082015250565b7f4552433732313a206f776e657220717565727920666f72206e6f6e657869737460008201527f656e7420746f6b656e0000000000000000000000000000000000000000000000602082015250565b7f227d000000000000000000000000000000000000000000000000000000000000600082015250565b7f22207d205d2c2022696d616765223a2022000000000000000000000000000000600082015250565b7f4552433732313a206d696e7420746f20746865207a65726f2061646472657373600082015250565b7f7b226e616d65223a20224173616d69202876302e31296073204865617274222c60008201527f20226465736372697074696f6e223a20224173616d692068617320666f756e6460208201527f2068657220736f756c6d6174652e222c2022616e696d6174696f6e5f75726c2260408201527f3a202268747470733a2f2f6173736574732e69646f6c7265736561726368657260608201527f736170692e636f6d2f4153414d492d48454152542e6d7034222c20226174747260808201527f696275746573223a205b207b202274726169745f74797065223a20224665656c60a08201527f73222c202276616c7565223a202246756c66696c6c656422207d205d2c20226960c08201527f6d616765223a202268747470733a2f2f6173736574732e69646f6c726573656160e08201527f7263686572736170692e636f6d2f4153414d492d48454152542e706e67227d0061010082015250565b7f4552433732313a20617070726f76656420717565727920666f72206e6f6e657860008201527f697374656e7420746f6b656e0000000000000000000000000000000000000000602082015250565b7f4f776e61626c653a2063616c6c6572206973206e6f7420746865206f776e6572600082015250565b7f4552433732313a207472616e73666572206f6620746f6b656e2074686174206960008201527f73206e6f74206f776e0000000000000000000000000000000000000000000000602082015250565b7f207d2c207b202274726169745f74797065223a20225a6f64696163222c20227660008201527f616c7565223a202253636f7270696f22207d2c207b202274726169745f74797060208201527f65223a2022416e6f6e204c65746073222c202276616c7565223a202200000000604082015250565b7f22207d2c207b202274726169745f74797065223a2022417573706963696f757360008201527f204e756d626572222c202276616c7565223a2000000000000000000000000000602082015250565b7f4552433732313a20617070726f76616c20746f2063757272656e74206f776e6560008201527f7200000000000000000000000000000000000000000000000000000000000000602082015250565b7f497420636f73747320302e30372045544820746f20737461727420612072656c60008201527f6174696f6e736869700000000000000000000000000000000000000000000000602082015250565b7f2e73766700000000000000000000000000000000000000000000000000000000600082015250565b7f646174613a6170706c69636174696f6e2f6a736f6e3b6261736536342c000000600082015250565b7f4552433732313a207472616e736665722063616c6c6572206973206e6f74206f60008201527f776e6572206e6f7220617070726f766564000000000000000000000000000000602082015250565b7f4f75722047462069732074697265642e00000000000000000000000000000000600082015250565b7f4f757220474620697320736c656570696e672e00000000000000000000000000600082015250565b7f455243373231456e756d657261626c653a20676c6f62616c20696e646578206f60008201527f7574206f6620626f756e64730000000000000000000000000000000000000000602082015250565b7f2d00000000000000000000000000000000000000000000000000000000000000600082015250565b7f68747470733a2f2f6173736574732e69646f6c7265736561726368657273617060008201527f692e636f6d2f4153414d492d0000000000000000000000000000000000000000602082015250565b7f4f7572204746206973206174206d617820736f6369616c20636170616369747960008201527f2e00000000000000000000000000000000000000000000000000000000000000602082015250565b7f3030000000000000000000000000000000000000000000000000000000000000600082015250565b7f5265656e7472616e637947756172643a207265656e7472616e742063616c6c00600082015250565b7f7b226e616d65223a20224173616d69202876302e312920230000000000000000600082015250565b6150588161430b565b811461506357600080fd5b50565b61506f8161431d565b811461507a57600080fd5b50565b61508681614329565b811461509157600080fd5b50565b61509d81614375565b81146150a857600080fd5b5056fe4142434445464748494a4b4c4d4e4f505152535455565758595a6162636465666768696a6b6c6d6e6f707172737475767778797a303132333435363738392b2fa2646970667358221220f709950b2095accc98d3b415dc979b3a181b5e444b5fd8f16bd51e73d6e38f2c64736f6c63430008040033",
  "devdoc": {
    "kind": "dev",
    "methods": {
      "approve(address,uint256)": {
        "details": "See {IERC721-approve}."
      },
      "balanceOf(address)": {
        "details": "See {IERC721-balanceOf}."
      },
      "getApproved(uint256)": {
        "details": "See {IERC721-getApproved}."
      },
      "isApprovedForAll(address,address)": {
        "details": "See {IERC721-isApprovedForAll}."
      },
      "name()": {
        "details": "See {IERC721Metadata-name}."
      },
      "owner()": {
        "details": "Returns the address of the current owner."
      },
      "ownerOf(uint256)": {
        "details": "See {IERC721-ownerOf}."
      },
      "renounceOwnership()": {
        "details": "Leaves the contract without owner. It will not be possible to call `onlyOwner` functions anymore. Can only be called by the current owner. NOTE: Renouncing ownership will leave the contract without an owner, thereby removing any functionality that is only available to the owner."
      },
      "safeTransferFrom(address,address,uint256)": {
        "details": "See {IERC721-safeTransferFrom}."
      },
      "safeTransferFrom(address,address,uint256,bytes)": {
        "details": "See {IERC721-safeTransferFrom}."
      },
      "setApprovalForAll(address,bool)": {
        "details": "See {IERC721-setApprovalForAll}."
      },
      "supportsInterface(bytes4)": {
        "details": "See {IERC165-supportsInterface}."
      },
      "symbol()": {
        "details": "See {IERC721Metadata-symbol}."
      },
      "tokenByIndex(uint256)": {
        "details": "See {IERC721Enumerable-tokenByIndex}."
      },
      "tokenOfOwnerByIndex(address,uint256)": {
        "details": "See {IERC721Enumerable-tokenOfOwnerByIndex}."
      },
      "tokenURI(uint256)": {
        "details": "See {IERC721Metadata-tokenURI}."
      },
      "totalSupply()": {
        "details": "See {IERC721Enumerable-totalSupply}."
      },
      "transferFrom(address,address,uint256)": {
        "details": "See {IERC721-transferFrom}."
      },
      "transferOwnership(address)": {
        "details": "Transfers ownership of the contract to a new account (`newOwner`). Can only be called by the current owner."
      }
    },
    "version": 1
  },
  "userdoc": {
    "kind": "user",
    "methods": {},
    "version": 1
  },
  "storageLayout": {
    "storage": [
      {
        "astId": 169,
        "contract": "contracts/OurGirlfriend.sol:OurGirlfriend",
        "label": "_name",
        "offset": 0,
        "slot": "0",
        "type": "t_string_storage"
      },
      {
        "astId": 171,
        "contract": "contracts/OurGirlfriend.sol:OurGirlfriend",
        "label": "_symbol",
        "offset": 0,
        "slot": "1",
        "type": "t_string_storage"
      },
      {
        "astId": 175,
        "contract": "contracts/OurGirlfriend.sol:OurGirlfriend",
        "label": "_owners",
        "offset": 0,
        "slot": "2",
        "type": "t_mapping(t_uint256,t_address)"
      },
      {
        "astId": 179,
        "contract": "contracts/OurGirlfriend.sol:OurGirlfriend",
        "label": "_balances",
        "offset": 0,
        "slot": "3",
        "type": "t_mapping(t_address,t_uint256)"
      },
      {
        "astId": 183,
        "contract": "contracts/OurGirlfriend.sol:OurGirlfriend",
        "label": "_tokenApprovals",
        "offset": 0,
        "slot": "4",
        "type": "t_mapping(t_uint256,t_address)"
      },
      {
        "astId": 189,
        "contract": "contracts/OurGirlfriend.sol:OurGirlfriend",
        "label": "_operatorApprovals",
        "offset": 0,
        "slot": "5",
        "type": "t_mapping(t_address,t_mapping(t_address,t_bool))"
      },
      {
        "astId": 1108,
        "contract": "contracts/OurGirlfriend.sol:OurGirlfriend",
        "label": "_ownedTokens",
        "offset": 0,
        "slot": "6",
        "type": "t_mapping(t_address,t_mapping(t_uint256,t_uint256))"
      },
      {
        "astId": 1112,
        "contract": "contracts/OurGirlfriend.sol:OurGirlfriend",
        "label": "_ownedTokensIndex",
        "offset": 0,
        "slot": "7",
        "type": "t_mapping(t_uint256,t_uint256)"
      },
      {
        "astId": 1115,
        "contract": "contracts/OurGirlfriend.sol:OurGirlfriend",
        "label": "_allTokens",
        "offset": 0,
        "slot": "8",
        "type": "t_array(t_uint256)dyn_storage"
      },
      {
        "astId": 1119,
        "contract": "contracts/OurGirlfriend.sol:OurGirlfriend",
        "label": "_allTokensIndex",
        "offset": 0,
        "slot": "9",
        "type": "t_mapping(t_uint256,t_uint256)"
      },
      {
        "astId": 7,
        "contract": "contracts/OurGirlfriend.sol:OurGirlfriend",
        "label": "_owner",
        "offset": 0,
        "slot": "10",
        "type": "t_address"
      },
      {
        "astId": 114,
        "contract": "contracts/OurGirlfriend.sol:OurGirlfriend",
        "label": "_status",
        "offset": 0,
        "slot": "11",
        "type": "t_uint256"
      },
      {
        "astId": 2228,
        "contract": "contracts/OurGirlfriend.sol:OurGirlfriend",
        "label": "relationshipScores",
        "offset": 0,
        "slot": "12",
        "type": "t_mapping(t_uint256,t_uint256)"
      },
      {
        "astId": 2230,
        "contract": "contracts/OurGirlfriend.sol:OurGirlfriend",
        "label": "soulmate",
        "offset": 0,
        "slot": "13",
        "type": "t_address"
      },
      {
        "astId": 2232,
        "contract": "contracts/OurGirlfriend.sol:OurGirlfriend",
        "label": "lastWooed",
        "offset": 0,
        "slot": "14",
        "type": "t_uint256"
      },
      {
        "astId": 2234,
        "contract": "contracts/OurGirlfriend.sol:OurGirlfriend",
        "label": "mintRevenue",
        "offset": 0,
        "slot": "15",
        "type": "t_uint256"
      },
      {
        "astId": 2236,
        "contract": "contracts/OurGirlfriend.sol:OurGirlfriend",
        "label": "creatorShareClaimed",
        "offset": 0,
        "slot": "16",
        "type": "t_uint256"
      },
      {
        "astId": 2265,
        "contract": "contracts/OurGirlfriend.sol:OurGirlfriend",
        "label": "HOBBIES",
        "offset": 0,
        "slot": "17",
        "type": "t_array(t_string_storage)dyn_storage"
      }
    ],
    "types": {
      "t_address": {
        "encoding": "inplace",
        "label": "address",
        "numberOfBytes": "20"
      },
      "t_array(t_string_storage)dyn_storage": {
        "base": "t_string_storage",
        "encoding": "dynamic_array",
        "label": "string[]",
        "numberOfBytes": "32"
      },
      "t_array(t_uint256)dyn_storage": {
        "base": "t_uint256",
        "encoding": "dynamic_array",
        "label": "uint256[]",
        "numberOfBytes": "32"
      },
      "t_bool": {
        "encoding": "inplace",
        "label": "bool",
        "numberOfBytes": "1"
      },
      "t_mapping(t_address,t_bool)": {
        "encoding": "mapping",
        "key": "t_address",
        "label": "mapping(address => bool)",
        "numberOfBytes": "32",
        "value": "t_bool"
      },
      "t_mapping(t_address,t_mapping(t_address,t_bool))": {
        "encoding": "mapping",
        "key": "t_address",
        "label": "mapping(address => mapping(address => bool))",
        "numberOfBytes": "32",
        "value": "t_mapping(t_address,t_bool)"
      },
      "t_mapping(t_address,t_mapping(t_uint256,t_uint256))": {
        "encoding": "mapping",
        "key": "t_address",
        "label": "mapping(address => mapping(uint256 => uint256))",
        "numberOfBytes": "32",
        "value": "t_mapping(t_uint256,t_uint256)"
      },
      "t_mapping(t_address,t_uint256)": {
        "encoding": "mapping",
        "key": "t_address",
        "label": "mapping(address => uint256)",
        "numberOfBytes": "32",
        "value": "t_uint256"
      },
      "t_mapping(t_uint256,t_address)": {
        "encoding": "mapping",
        "key": "t_uint256",
        "label": "mapping(uint256 => address)",
        "numberOfBytes": "32",
        "value": "t_address"
      },
      "t_mapping(t_uint256,t_uint256)": {
        "encoding": "mapping",
        "key": "t_uint256",
        "label": "mapping(uint256 => uint256)",
        "numberOfBytes": "32",
        "value": "t_uint256"
      },
      "t_string_storage": {
        "encoding": "bytes",
        "label": "string",
        "numberOfBytes": "32"
      },
      "t_uint256": {
        "encoding": "inplace",
        "label": "uint256",
        "numberOfBytes": "32"
      }
    }
  }
}